{
  "contractName": "CourseMarketplace",
  "abi": [
    {
      "inputs": [],
      "stateMutability": "nonpayable",
      "type": "constructor"
    },
    {
      "inputs": [],
      "name": "CourseHasOwner",
      "type": "error"
    },
    {
      "inputs": [],
      "name": "CourseNotFound",
      "type": "error"
    },
    {
      "inputs": [],
      "name": "InvalidCourseState",
      "type": "error"
    },
    {
      "inputs": [],
      "name": "OnlyOwner",
      "type": "error"
    },
    {
      "inputs": [
        {
          "internalType": "bytes16",
          "name": "courseId",
          "type": "bytes16"
        },
        {
          "internalType": "bytes32",
          "name": "proof",
          "type": "bytes32"
        }
      ],
      "name": "purchaseCourse",
      "outputs": [],
      "stateMutability": "payable",
      "type": "function",
      "payable": true
    },
    {
      "inputs": [
        {
          "internalType": "bytes32",
          "name": "courseHash",
          "type": "bytes32"
        }
      ],
      "name": "activateCourse",
      "outputs": [],
      "stateMutability": "nonpayable",
      "type": "function"
    },
    {
      "inputs": [],
      "name": "getCourseCount",
      "outputs": [
        {
          "internalType": "uint256",
          "name": "",
          "type": "uint256"
        }
      ],
      "stateMutability": "view",
      "type": "function",
      "constant": true
    },
    {
      "inputs": [
        {
          "internalType": "uint256",
          "name": "index",
          "type": "uint256"
        }
      ],
      "name": "getCourseHashAtIndex",
      "outputs": [
        {
          "internalType": "bytes32",
          "name": "",
          "type": "bytes32"
        }
      ],
      "stateMutability": "view",
      "type": "function",
      "constant": true
    },
    {
      "inputs": [
        {
          "internalType": "bytes32",
          "name": "courseHash",
          "type": "bytes32"
        }
      ],
      "name": "getCourseByHash",
      "outputs": [
        {
          "components": [
            {
              "internalType": "uint256",
              "name": "id",
              "type": "uint256"
            },
            {
              "internalType": "uint256",
              "name": "price",
              "type": "uint256"
            },
            {
              "internalType": "bytes32",
              "name": "proof",
              "type": "bytes32"
            },
            {
              "internalType": "address",
              "name": "owner",
              "type": "address"
            },
            {
              "internalType": "enum CourseMarketplace.State",
              "name": "state",
              "type": "uint8"
            }
          ],
          "internalType": "struct CourseMarketplace.Course",
          "name": "",
          "type": "tuple"
        }
      ],
      "stateMutability": "view",
      "type": "function",
      "constant": true
    },
    {
      "inputs": [
        {
          "internalType": "address",
          "name": "newOwner",
          "type": "address"
        }
      ],
      "name": "transferOwnership",
      "outputs": [],
      "stateMutability": "nonpayable",
      "type": "function"
    },
    {
      "inputs": [],
      "name": "getContractOwner",
      "outputs": [
        {
          "internalType": "address",
          "name": "",
          "type": "address"
        }
      ],
      "stateMutability": "view",
      "type": "function",
      "constant": true
    }
  ],
  "bytecode": "0x608060405234801561001057600080fd5b506100203361002560201b60201c565b610069565b80600360006101000a81548173ffffffffffffffffffffffffffffffffffffffff021916908373ffffffffffffffffffffffffffffffffffffffff16021790555050565b610d8e806100786000396000f3fe6080604052600436106100705760003560e01c80636d11290b1161004e5780636d11290b1461010657806396cfda0614610143578063d76821cb1461016e578063f2fde38b1461018a57610070565b80633926257214610075578063442890d51461009e57806362e4e6ac146100c9575b600080fd5b34801561008157600080fd5b5061009c600480360381019061009791906108f3565b6101b3565b005b3480156100aa57600080fd5b506100b3610335565b6040516100c09190610961565b60405180910390f35b3480156100d557600080fd5b506100f060048036038101906100eb91906108f3565b61035f565b6040516100fd9190610a92565b60405180910390f35b34801561011257600080fd5b5061012d60048036038101906101289190610ad9565b61043a565b60405161013a9190610b15565b60405180910390f35b34801561014f57600080fd5b50610158610457565b6040516101659190610b3f565b60405180910390f35b61018860048036038101906101839190610bb2565b610461565b005b34801561019657600080fd5b506101b160048036038101906101ac9190610c1e565b610601565b005b600360009054906101000a900473ffffffffffffffffffffffffffffffffffffffff1673ffffffffffffffffffffffffffffffffffffffff163373ffffffffffffffffffffffffffffffffffffffff161461023a576040517f5fc483c500000000000000000000000000000000000000000000000000000000815260040160405180910390fd5b61024381610694565b610279576040517fee8fc9d100000000000000000000000000000000000000000000000000000000815260040160405180910390fd5b60008060008381526020019081526020016000209050600060028111156102a3576102a26109b3565b5b8160030160149054906101000a900460ff1660028111156102c7576102c66109b3565b5b14156102ff5760018160030160146101000a81548160ff021916908360028111156102f5576102f46109b3565b5b0217905550610331565b6040517fe2b0190b00000000000000000000000000000000000000000000000000000000815260040160405180910390fd5b5050565b6000600360009054906101000a900473ffffffffffffffffffffffffffffffffffffffff16905090565b61036761085e565b6000808381526020019081526020016000206040518060a00160405290816000820154815260200160018201548152602001600282015481526020016003820160009054906101000a900473ffffffffffffffffffffffffffffffffffffffff1673ffffffffffffffffffffffffffffffffffffffff1673ffffffffffffffffffffffffffffffffffffffff1681526020016003820160149054906101000a900460ff16600281111561041d5761041c6109b3565b5b600281111561042f5761042e6109b3565b5b815250509050919050565b600060016000838152602001908152602001600020549050919050565b6000600254905090565b60008233604051602001610476929190610cb4565b6040516020818303038152906040528051906020012090506104978161070e565b156104ce576040517fb0fc2d9700000000000000000000000000000000000000000000000000000000815260040160405180910390fd5b6000600260008154809291906104e390610d0f565b9190505590508160016000838152602001908152602001600020819055506040518060a001604052808281526020013481526020018481526020013373ffffffffffffffffffffffffffffffffffffffff1681526020016000600281111561054e5761054d6109b3565b5b81525060008084815260200190815260200160002060008201518160000155602082015181600101556040820151816002015560608201518160030160006101000a81548173ffffffffffffffffffffffffffffffffffffffff021916908373ffffffffffffffffffffffffffffffffffffffff16021790555060808201518160030160146101000a81548160ff021916908360028111156105f3576105f26109b3565b5b021790555090505050505050565b600360009054906101000a900473ffffffffffffffffffffffffffffffffffffffff1673ffffffffffffffffffffffffffffffffffffffff163373ffffffffffffffffffffffffffffffffffffffff1614610688576040517f5fc483c500000000000000000000000000000000000000000000000000000000815260040160405180910390fd5b6106918161081a565b50565b60008060009050600080600085815260200190815260200160002090508173ffffffffffffffffffffffffffffffffffffffff168160030160009054906101000a900473ffffffffffffffffffffffffffffffffffffffff1673ffffffffffffffffffffffffffffffffffffffff16141592505050919050565b6000806000808481526020019081526020016000206040518060a00160405290816000820154815260200160018201548152602001600282015481526020016003820160009054906101000a900473ffffffffffffffffffffffffffffffffffffffff1673ffffffffffffffffffffffffffffffffffffffff1673ffffffffffffffffffffffffffffffffffffffff1681526020016003820160149054906101000a900460ff1660028111156107c7576107c66109b3565b5b60028111156107d9576107d86109b3565b5b8152505090503373ffffffffffffffffffffffffffffffffffffffff16816060015173ffffffffffffffffffffffffffffffffffffffff1614915050919050565b80600360006101000a81548173ffffffffffffffffffffffffffffffffffffffff021916908373ffffffffffffffffffffffffffffffffffffffff16021790555050565b6040518060a00160405280600081526020016000815260200160008019168152602001600073ffffffffffffffffffffffffffffffffffffffff168152602001600060028111156108b2576108b16109b3565b5b81525090565b600080fd5b6000819050919050565b6108d0816108bd565b81146108db57600080fd5b50565b6000813590506108ed816108c7565b92915050565b600060208284031215610909576109086108b8565b5b6000610917848285016108de565b91505092915050565b600073ffffffffffffffffffffffffffffffffffffffff82169050919050565b600061094b82610920565b9050919050565b61095b81610940565b82525050565b60006020820190506109766000830184610952565b92915050565b6000819050919050565b61098f8161097c565b82525050565b61099e816108bd565b82525050565b6109ad81610940565b82525050565b7f4e487b7100000000000000000000000000000000000000000000000000000000600052602160045260246000fd5b600381106109f3576109f26109b3565b5b50565b6000819050610a04826109e2565b919050565b6000610a14826109f6565b9050919050565b610a2481610a09565b82525050565b60a082016000820151610a406000850182610986565b506020820151610a536020850182610986565b506040820151610a666040850182610995565b506060820151610a7960608501826109a4565b506080820151610a8c6080850182610a1b565b50505050565b600060a082019050610aa76000830184610a2a565b92915050565b610ab68161097c565b8114610ac157600080fd5b50565b600081359050610ad381610aad565b92915050565b600060208284031215610aef57610aee6108b8565b5b6000610afd84828501610ac4565b91505092915050565b610b0f816108bd565b82525050565b6000602082019050610b2a6000830184610b06565b92915050565b610b398161097c565b82525050565b6000602082019050610b546000830184610b30565b92915050565b60007fffffffffffffffffffffffffffffffff0000000000000000000000000000000082169050919050565b610b8f81610b5a565b8114610b9a57600080fd5b50565b600081359050610bac81610b86565b92915050565b60008060408385031215610bc957610bc86108b8565b5b6000610bd785828601610b9d565b9250506020610be8858286016108de565b9150509250929050565b610bfb81610940565b8114610c0657600080fd5b50565b600081359050610c1881610bf2565b92915050565b600060208284031215610c3457610c336108b8565b5b6000610c4284828501610c09565b91505092915050565b6000819050919050565b610c66610c6182610b5a565b610c4b565b82525050565b60008160601b9050919050565b6000610c8482610c6c565b9050919050565b6000610c9682610c79565b9050919050565b610cae610ca982610940565b610c8b565b82525050565b6000610cc08285610c55565b601082019150610cd08284610c9d565b6014820191508190509392505050565b7f4e487b7100000000000000000000000000000000000000000000000000000000600052601160045260246000fd5b6000610d1a8261097c565b91507fffffffffffffffffffffffffffffffffffffffffffffffffffffffffffffffff821415610d4d57610d4c610ce0565b5b60018201905091905056fea2646970667358221220e77ba8897481b5aa0abecc39ab0fbbbf0970fb6d486fdee62352af982b2d16c864736f6c634300080b0033",
  "immutableReferences": {},
  "source": "// SPDX-License-Identifier: MIT\npragma solidity >=0.4.22 <0.9.0;\n\ncontract CourseMarketplace {\n  enum State {\n    Purchased,\n    Activated,\n    Deactivated\n  }\n\n  struct Course {\n    uint256 id; // default to uint256 - 32 bytes (slot 1)\n    uint256 price; // 32 bytes (slot 2)\n    /**\n     * 8 * 32 = 256 bits hexadecimal characters,\n     * keccak256 encoded that is unique to the user, purchaser of the course\n     */\n    bytes32 proof; // 32 bytes (slot 3)\n    // user who has purchased the course\n    address owner; // 20 bytes (slot 4)\n    State state; // 1 byte (slot 4)\n  }\n\n  // Course Hash maps to Course\n  mapping(bytes32 => Course) private ownedCourses;\n\n  // Course Id maps to Course Hash\n  mapping(uint256 => bytes32) private ownedCoursesHash;\n\n  // total number of courses owned\n  uint256 private totalOwnedCourses; // defaults to a value of zero\n\n  address payable private owner;\n\n  constructor() {\n    setContractOwner(msg.sender);\n  }\n\n  /**\n      Comments made after `///` just above the error declaration \n      is considered as the error message for the given error\n   */\n  /// You already own the selected course!\n  error CourseHasOwner();\n\n  /// Only owner has the access!\n  error OnlyOwner();\n\n  /// Course doesn't exist!\n  error CourseNotFound();\n\n  /// Course should be in purchase or deactivated state to be activated!\n  error InvalidCourseState();\n\n  modifier onlyOwner() {\n    if (msg.sender != owner) {\n      revert OnlyOwner();\n    }\n    _;\n  }\n\n  function setContractOwner(address newOwner) private {\n    owner = payable(newOwner);\n  }\n\n  function hasCourseOwnership(bytes32 courseHash) private view returns (bool) {\n    Course memory course = ownedCourses[courseHash];\n    return course.owner == msg.sender;\n  }\n\n  /**\n    Example,\n      - courseId  = 10 (ASCII) \n                  = 0x3130 (HEX) \n      => 16 bytes = 0x00000000000000000000000000003130 (32 characters)\n\n      - address = 0xAb8483F64d9C6d1EcF9b849Ae677dD3315835cb2 => 20 bytes (30 characters)\n\n      - abi.encodePacked(courseId, msg.sender)\n                  = 00000000000000000000000000003130Ab8483F64d9C6d1EcF9b849Ae677dD3315835cb2\n      \n      - keccak256(00000000000000000000000000003130Ab8483F64d9C6d1EcF9b849Ae677dD3315835cb2)\n                  = ff97578d8dd58d484dac933924a0f06f3ff39cc2843610754dfebd8770f807e5\n                  = courseHash\n                  = ff97578d8dd58d484dac933924a0f06f3ff39cc2843610754dfebd8770f807e5 (Output received from purchaseCourse function when run with above parameters on remix editor)\n      \n      - let proof = courseId-courseId (16 + 16 = 32 bytes, random value as of now)\n                  = 0x0000000000000000000000000000313000000000000000000000000000003130\n   */\n  function purchaseCourse(bytes16 courseId, bytes32 proof) external payable {\n    /**\n        - abi.encodePacked(courseId, msg.sender) => simply concatenates courseId & sender address together\n        - keccak256 encodes the concatenated courseId & sender address to generate the final course hash\n     */\n    bytes32 courseHash = keccak256(abi.encodePacked(courseId, msg.sender));\n\n    if (hasCourseOwnership(courseHash)) {\n      revert CourseHasOwner();\n    }\n\n    uint256 id = totalOwnedCourses++;\n    ownedCoursesHash[id] = courseHash;\n    ownedCourses[courseHash] = Course({\n      id: id,\n      price: msg.value,\n      proof: proof,\n      owner: msg.sender,\n      state: State.Purchased\n    });\n  }\n\n  function activateCourse(bytes32 courseHash) external onlyOwner {\n    if (!isCourseCreated(courseHash)) {\n      revert CourseNotFound();\n    }\n\n    Course storage course = ownedCourses[courseHash];\n\n    if (course.state == State.Purchased) {\n      course.state = State.Activated;\n    } else {\n      revert InvalidCourseState();\n    }\n  }\n\n  /**\n   *  Get the total number of courses\n   */\n  function getCourseCount() external view returns (uint256) {\n    return totalOwnedCourses;\n  }\n\n  /**\n   *  Get the hash of the course at a given index\n   */\n  function getCourseHashAtIndex(uint256 index) external view returns (bytes32) {\n    return ownedCoursesHash[index];\n  }\n\n  /**\n   *  Get course detail for a given course hash\n   */\n  function getCourseByHash(bytes32 courseHash)\n    external\n    view\n    returns (Course memory)\n  {\n    return ownedCourses[courseHash];\n  }\n\n  function transferOwnership(address newOwner) external onlyOwner {\n    setContractOwner(newOwner);\n  }\n\n  function getContractOwner() public view returns (address) {\n    return owner;\n  }\n\n  function isCourseCreated(bytes32 courseHash) private view returns (bool) {\n    address adr = address(0x00);\n    Course storage course = ownedCourses[courseHash];\n    return course.owner != adr;\n  }\n}\n\n/**\n  Commands:\n    - const instance = await CourseMarketplace.deployed();\n    - await instance.purchaseCourse(\"0x00000000000000000000000000003130\",\"0x0000000000000000000000000000313000000000000000000000000000003130\", { from: accounts[1], value: 2000000000 });\n    - (await instance.getCourseCount()).toString();\n    - await instance.getCourseHashAtIndex(0);\n    - await instance.getCourseByHash(\"0x54b70b6e9e56c766edcb9d5715690e437820188c9eb798fc4635e137262e30e5\");\n    \n    // accounts[0] is the owner\n    - await instance.getContractOwner();\n\n    // accounts[1] becomes new owner\n    - await instance.transferOwnership(\"0x1631d6e4b2921Bd8A78B32CC77eF57F231F8F7B2\");\n\n    // accounts[0] tries to transfer ownership to accounts[1], throws error since accounts[0] is no longer the owner to execute transferOwnership method\n    - await instance.transferOwnership(\"0x1631d6e4b2921Bd8A78B32CC77eF57F231F8F7B2\",{ from:\"0x24f968F05696b1F7322A8772f76eF46Bb3D38414\" });\n\n    // activate the course\n    - await instance.activateCourse(\"0x54b70b6e9e56c766edcb9d5715690e437820188c9eb798fc4635e137262e30e5\");\n\n */\n",
  "sourcePath": "/Users/amitmahato/ReadyToWork/RND/Blockchain/marketplace-eth/contracts/CourseMarketplace.sol",
  "compiler": {
    "name": "solc",
    "version": "0.8.11+commit.d7f03943.Emscripten.clang"
  },
  "schemaVersion": "3.4.4",
  "updatedAt": "2022-09-17T20:31:36.915Z",
  "networkType": "ethereum",
  "devdoc": {
    "kind": "dev",
    "methods": {},
    "version": 1
  },
  "userdoc": {
    "errors": {
      "CourseHasOwner()": [
        {
          "notice": "You already own the selected course!"
        }
      ],
      "CourseNotFound()": [
        {
          "notice": "Course doesn't exist!"
        }
      ],
      "InvalidCourseState()": [
        {
          "notice": "Course should be in purchase or deactivated state to be activated!"
        }
      ],
      "OnlyOwner()": [
        {
          "notice": "Only owner has the access!"
        }
      ]
    },
    "kind": "user",
    "methods": {
      "getCourseByHash(bytes32)": {
        "notice": "Get course detail for a given course hash"
      },
      "getCourseCount()": {
        "notice": "Get the total number of courses"
      },
      "getCourseHashAtIndex(uint256)": {
        "notice": "Get the hash of the course at a given index"
      },
      "purchaseCourse(bytes16,bytes32)": {
        "notice": "Example, - courseId  = 10 (ASCII)  = 0x3130 (HEX)  => 16 bytes = 0x00000000000000000000000000003130 (32 characters) - address = 0xAb8483F64d9C6d1EcF9b849Ae677dD3315835cb2 => 20 bytes (30 characters) - abi.encodePacked(courseId, msg.sender) = 00000000000000000000000000003130Ab8483F64d9C6d1EcF9b849Ae677dD3315835cb2 - keccak256(00000000000000000000000000003130Ab8483F64d9C6d1EcF9b849Ae677dD3315835cb2) = ff97578d8dd58d484dac933924a0f06f3ff39cc2843610754dfebd8770f807e5 = courseHash = ff97578d8dd58d484dac933924a0f06f3ff39cc2843610754dfebd8770f807e5 (Output received from purchaseCourse function when run with above parameters on remix editor) - let proof = courseId-courseId (16 + 16 = 32 bytes, random value as of now) = 0x0000000000000000000000000000313000000000000000000000000000003130"
      }
    },
    "version": 1
  }
}