{
  "contractName": "CourseMarketplace",
  "abi": [
    {
      "inputs": [],
      "stateMutability": "nonpayable",
      "type": "constructor"
    },
    {
      "inputs": [],
      "name": "CourseHasOwner",
      "type": "error"
    },
    {
      "inputs": [],
      "name": "CourseNotFound",
      "type": "error"
    },
    {
      "inputs": [],
      "name": "CourseNotOwned",
      "type": "error"
    },
    {
      "inputs": [],
      "name": "InvalidCourseState",
      "type": "error"
    },
    {
      "inputs": [],
      "name": "OnlyOwner",
      "type": "error"
    },
    {
      "inputs": [],
      "name": "isStopped",
      "outputs": [
        {
          "internalType": "bool",
          "name": "",
          "type": "bool"
        }
      ],
      "stateMutability": "view",
      "type": "function",
      "constant": true
    },
    {
      "stateMutability": "payable",
      "type": "receive",
      "payable": true
    },
    {
      "inputs": [],
      "name": "stopContract",
      "outputs": [],
      "stateMutability": "nonpayable",
      "type": "function"
    },
    {
      "inputs": [],
      "name": "resumeContract",
      "outputs": [],
      "stateMutability": "nonpayable",
      "type": "function"
    },
    {
      "inputs": [
        {
          "internalType": "uint256",
          "name": "amount",
          "type": "uint256"
        }
      ],
      "name": "withdraw",
      "outputs": [],
      "stateMutability": "nonpayable",
      "type": "function"
    },
    {
      "inputs": [],
      "name": "emergencyWithdraw",
      "outputs": [],
      "stateMutability": "nonpayable",
      "type": "function"
    },
    {
      "inputs": [],
      "name": "selfDestruct",
      "outputs": [],
      "stateMutability": "nonpayable",
      "type": "function"
    },
    {
      "inputs": [
        {
          "internalType": "bytes16",
          "name": "courseId",
          "type": "bytes16"
        },
        {
          "internalType": "bytes32",
          "name": "proof",
          "type": "bytes32"
        }
      ],
      "name": "purchaseCourse",
      "outputs": [],
      "stateMutability": "payable",
      "type": "function",
      "payable": true
    },
    {
      "inputs": [
        {
          "internalType": "bytes32",
          "name": "courseHash",
          "type": "bytes32"
        }
      ],
      "name": "repurchaseCourse",
      "outputs": [],
      "stateMutability": "payable",
      "type": "function",
      "payable": true
    },
    {
      "inputs": [
        {
          "internalType": "bytes32",
          "name": "courseHash",
          "type": "bytes32"
        }
      ],
      "name": "activateCourse",
      "outputs": [],
      "stateMutability": "nonpayable",
      "type": "function"
    },
    {
      "inputs": [
        {
          "internalType": "bytes32",
          "name": "courseHash",
          "type": "bytes32"
        }
      ],
      "name": "deactivateCourse",
      "outputs": [],
      "stateMutability": "nonpayable",
      "type": "function"
    },
    {
      "inputs": [],
      "name": "getCourseCount",
      "outputs": [
        {
          "internalType": "uint256",
          "name": "",
          "type": "uint256"
        }
      ],
      "stateMutability": "view",
      "type": "function",
      "constant": true
    },
    {
      "inputs": [
        {
          "internalType": "uint256",
          "name": "index",
          "type": "uint256"
        }
      ],
      "name": "getCourseHashAtIndex",
      "outputs": [
        {
          "internalType": "bytes32",
          "name": "",
          "type": "bytes32"
        }
      ],
      "stateMutability": "view",
      "type": "function",
      "constant": true
    },
    {
      "inputs": [
        {
          "internalType": "bytes32",
          "name": "courseHash",
          "type": "bytes32"
        }
      ],
      "name": "getCourseByHash",
      "outputs": [
        {
          "components": [
            {
              "internalType": "uint256",
              "name": "id",
              "type": "uint256"
            },
            {
              "internalType": "uint256",
              "name": "price",
              "type": "uint256"
            },
            {
              "internalType": "bytes32",
              "name": "proof",
              "type": "bytes32"
            },
            {
              "internalType": "address",
              "name": "owner",
              "type": "address"
            },
            {
              "internalType": "enum CourseMarketplace.State",
              "name": "state",
              "type": "uint8"
            }
          ],
          "internalType": "struct CourseMarketplace.Course",
          "name": "",
          "type": "tuple"
        }
      ],
      "stateMutability": "view",
      "type": "function",
      "constant": true
    },
    {
      "inputs": [
        {
          "internalType": "address",
          "name": "newOwner",
          "type": "address"
        }
      ],
      "name": "transferOwnership",
      "outputs": [],
      "stateMutability": "nonpayable",
      "type": "function"
    },
    {
      "inputs": [],
      "name": "getContractOwner",
      "outputs": [
        {
          "internalType": "address",
          "name": "",
          "type": "address"
        }
      ],
      "stateMutability": "view",
      "type": "function",
      "constant": true
    }
  ],
  "bytecode": "0x60806040526000600360146101000a81548160ff02191690831515021790555034801561002b57600080fd5b5061003b3361004060201b60201c565b610084565b80600360006101000a81548173ffffffffffffffffffffffffffffffffffffffff021916908373ffffffffffffffffffffffffffffffffffffffff16021790555050565b6119b6806100936000396000f3fe6080604052600436106100ec5760003560e01c80636d11290b1161008a578063c4bc5da511610059578063c4bc5da5146102b8578063d76821cb146102cf578063db2e21bc146102eb578063f2fde38b14610302576100f3565b80636d11290b14610210578063935d7e6d1461024d57806396cfda06146102765780639cb8a26a146102a1576100f3565b80633f683b6a116100c65780633f683b6a14610161578063442890d51461018c5780636136e1eb146101b757806362e4e6ac146101d3576100f3565b806312253a6c146100f85780632e1a7d4d1461010f5780633926257214610138576100f3565b366100f357005b600080fd5b34801561010457600080fd5b5061010d61032b565b005b34801561011b57600080fd5b506101366004803603810190610131919061136a565b6103cf565b005b34801561014457600080fd5b5061015f600480360381019061015a91906113cd565b610528565b005b34801561016d57600080fd5b506101766106c4565b6040516101839190611415565b60405180910390f35b34801561019857600080fd5b506101a16106d7565b6040516101ae9190611471565b60405180910390f35b6101d160048036038101906101cc91906113cd565b610701565b005b3480156101df57600080fd5b506101fa60048036038101906101f591906113cd565b610857565b6040516102079190611598565b60405180910390f35b34801561021c57600080fd5b506102376004803603810190610232919061136a565b610932565b60405161024491906115c2565b60405180910390f35b34801561025957600080fd5b50610274600480360381019061026f91906113cd565b61094f565b005b34801561028257600080fd5b5061028b610bc4565b60405161029891906115ec565b60405180910390f35b3480156102ad57600080fd5b506102b6610bce565b005b3480156102c457600080fd5b506102cd610ca9565b005b6102e960048036038101906102e4919061165f565b610d4d565b005b3480156102f757600080fd5b50610300610f07565b005b34801561030e57600080fd5b50610329600480360381019061032491906116cb565b611078565b005b600360009054906101000a900473ffffffffffffffffffffffffffffffffffffffff1673ffffffffffffffffffffffffffffffffffffffff163373ffffffffffffffffffffffffffffffffffffffff16146103b2576040517f5fc483c500000000000000000000000000000000000000000000000000000000815260040160405180910390fd5b6001600360146101000a81548160ff021916908315150217905550565b600360009054906101000a900473ffffffffffffffffffffffffffffffffffffffff1673ffffffffffffffffffffffffffffffffffffffff163373ffffffffffffffffffffffffffffffffffffffff1614610456576040517f5fc483c500000000000000000000000000000000000000000000000000000000815260040160405180910390fd5b6000600360009054906101000a900473ffffffffffffffffffffffffffffffffffffffff1673ffffffffffffffffffffffffffffffffffffffff168260405161049e90611729565b60006040518083038185875af1925050503d80600081146104db576040519150601f19603f3d011682016040523d82523d6000602084013e6104e0565b606091505b5050905080610524576040517f08c379a000000000000000000000000000000000000000000000000000000000815260040161051b906117e7565b60405180910390fd5b5050565b600360149054906101000a900460ff161561054257600080fd5b600360009054906101000a900473ffffffffffffffffffffffffffffffffffffffff1673ffffffffffffffffffffffffffffffffffffffff163373ffffffffffffffffffffffffffffffffffffffff16146105c9576040517f5fc483c500000000000000000000000000000000000000000000000000000000815260040160405180910390fd5b6105d28161110b565b610608576040517fee8fc9d100000000000000000000000000000000000000000000000000000000815260040160405180910390fd5b6000806000838152602001908152602001600020905060006002811115610632576106316114b9565b5b8160030160149054906101000a900460ff166002811115610656576106556114b9565b5b141561068e5760018160030160146101000a81548160ff02191690836002811115610684576106836114b9565b5b02179055506106c0565b6040517fe2b0190b00000000000000000000000000000000000000000000000000000000815260040160405180910390fd5b5050565b600360149054906101000a900460ff1681565b6000600360009054906101000a900473ffffffffffffffffffffffffffffffffffffffff16905090565b600360149054906101000a900460ff161561071b57600080fd5b6107248161110b565b61075a576040517fee8fc9d100000000000000000000000000000000000000000000000000000000815260040160405180910390fd5b61076381611185565b610799576040517f8d39572900000000000000000000000000000000000000000000000000000000815260040160405180910390fd5b600080600083815260200190815260200160002090506002808111156107c2576107c16114b9565b5b8160030160149054906101000a900460ff1660028111156107e6576107e56114b9565b5b1461081d576040517fe2b0190b00000000000000000000000000000000000000000000000000000000815260040160405180910390fd5b60008160030160146101000a81548160ff02191690836002811115610845576108446114b9565b5b02179055503481600101819055505050565b61085f6112d5565b6000808381526020019081526020016000206040518060a00160405290816000820154815260200160018201548152602001600282015481526020016003820160009054906101000a900473ffffffffffffffffffffffffffffffffffffffff1673ffffffffffffffffffffffffffffffffffffffff1673ffffffffffffffffffffffffffffffffffffffff1681526020016003820160149054906101000a900460ff166002811115610915576109146114b9565b5b6002811115610927576109266114b9565b5b815250509050919050565b600060016000838152602001908152602001600020549050919050565b600360149054906101000a900460ff161561096957600080fd5b600360009054906101000a900473ffffffffffffffffffffffffffffffffffffffff1673ffffffffffffffffffffffffffffffffffffffff163373ffffffffffffffffffffffffffffffffffffffff16146109f0576040517f5fc483c500000000000000000000000000000000000000000000000000000000815260040160405180910390fd5b6109f98161110b565b610a2f576040517fee8fc9d100000000000000000000000000000000000000000000000000000000815260040160405180910390fd5b6000806000838152602001908152602001600020905060006002811115610a5957610a586114b9565b5b8160030160149054906101000a900460ff166002811115610a7d57610a7c6114b9565b5b14610ab4576040517fe2b0190b00000000000000000000000000000000000000000000000000000000815260040160405180910390fd5b60008160030160009054906101000a900473ffffffffffffffffffffffffffffffffffffffff1673ffffffffffffffffffffffffffffffffffffffff168260010154604051610b0290611729565b60006040518083038185875af1925050503d8060008114610b3f576040519150601f19603f3d011682016040523d82523d6000602084013e610b44565b606091505b5050905080610b88576040517f08c379a0000000000000000000000000000000000000000000000000000000008152600401610b7f90611853565b60405180910390fd5b60028260030160146101000a81548160ff02191690836002811115610bb057610baf6114b9565b5b021790555060008260010181905550505050565b6000600254905090565b600360149054906101000a900460ff16610be757600080fd5b600360009054906101000a900473ffffffffffffffffffffffffffffffffffffffff1673ffffffffffffffffffffffffffffffffffffffff163373ffffffffffffffffffffffffffffffffffffffff1614610c6e576040517f5fc483c500000000000000000000000000000000000000000000000000000000815260040160405180910390fd5b600360009054906101000a900473ffffffffffffffffffffffffffffffffffffffff1673ffffffffffffffffffffffffffffffffffffffff16ff5b600360009054906101000a900473ffffffffffffffffffffffffffffffffffffffff1673ffffffffffffffffffffffffffffffffffffffff163373ffffffffffffffffffffffffffffffffffffffff1614610d30576040517f5fc483c500000000000000000000000000000000000000000000000000000000815260040160405180910390fd5b6000600360146101000a81548160ff021916908315150217905550565b600360149054906101000a900460ff1615610d6757600080fd5b60008233604051602001610d7c9291906118dc565b604051602081830303815290604052805190602001209050610d9d81611185565b15610dd4576040517fb0fc2d9700000000000000000000000000000000000000000000000000000000815260040160405180910390fd5b600060026000815480929190610de990611937565b9190505590508160016000838152602001908152602001600020819055506040518060a001604052808281526020013481526020018481526020013373ffffffffffffffffffffffffffffffffffffffff16815260200160006002811115610e5457610e536114b9565b5b81525060008084815260200190815260200160002060008201518160000155602082015181600101556040820151816002015560608201518160030160006101000a81548173ffffffffffffffffffffffffffffffffffffffff021916908373ffffffffffffffffffffffffffffffffffffffff16021790555060808201518160030160146101000a81548160ff02191690836002811115610ef957610ef86114b9565b5b021790555090505050505050565b600360149054906101000a900460ff16610f2057600080fd5b600360009054906101000a900473ffffffffffffffffffffffffffffffffffffffff1673ffffffffffffffffffffffffffffffffffffffff163373ffffffffffffffffffffffffffffffffffffffff1614610fa7576040517f5fc483c500000000000000000000000000000000000000000000000000000000815260040160405180910390fd5b6000600360009054906101000a900473ffffffffffffffffffffffffffffffffffffffff1673ffffffffffffffffffffffffffffffffffffffff1647604051610fef90611729565b60006040518083038185875af1925050503d806000811461102c576040519150601f19603f3d011682016040523d82523d6000602084013e611031565b606091505b5050905080611075576040517f08c379a000000000000000000000000000000000000000000000000000000000815260040161106c906117e7565b60405180910390fd5b50565b600360009054906101000a900473ffffffffffffffffffffffffffffffffffffffff1673ffffffffffffffffffffffffffffffffffffffff163373ffffffffffffffffffffffffffffffffffffffff16146110ff576040517f5fc483c500000000000000000000000000000000000000000000000000000000815260040160405180910390fd5b61110881611291565b50565b60008060009050600080600085815260200190815260200160002090508173ffffffffffffffffffffffffffffffffffffffff168160030160009054906101000a900473ffffffffffffffffffffffffffffffffffffffff1673ffffffffffffffffffffffffffffffffffffffff16141592505050919050565b6000806000808481526020019081526020016000206040518060a00160405290816000820154815260200160018201548152602001600282015481526020016003820160009054906101000a900473ffffffffffffffffffffffffffffffffffffffff1673ffffffffffffffffffffffffffffffffffffffff1673ffffffffffffffffffffffffffffffffffffffff1681526020016003820160149054906101000a900460ff16600281111561123e5761123d6114b9565b5b60028111156112505761124f6114b9565b5b8152505090503373ffffffffffffffffffffffffffffffffffffffff16816060015173ffffffffffffffffffffffffffffffffffffffff1614915050919050565b80600360006101000a81548173ffffffffffffffffffffffffffffffffffffffff021916908373ffffffffffffffffffffffffffffffffffffffff16021790555050565b6040518060a00160405280600081526020016000815260200160008019168152602001600073ffffffffffffffffffffffffffffffffffffffff16815260200160006002811115611329576113286114b9565b5b81525090565b600080fd5b6000819050919050565b61134781611334565b811461135257600080fd5b50565b6000813590506113648161133e565b92915050565b6000602082840312156113805761137f61132f565b5b600061138e84828501611355565b91505092915050565b6000819050919050565b6113aa81611397565b81146113b557600080fd5b50565b6000813590506113c7816113a1565b92915050565b6000602082840312156113e3576113e261132f565b5b60006113f1848285016113b8565b91505092915050565b60008115159050919050565b61140f816113fa565b82525050565b600060208201905061142a6000830184611406565b92915050565b600073ffffffffffffffffffffffffffffffffffffffff82169050919050565b600061145b82611430565b9050919050565b61146b81611450565b82525050565b60006020820190506114866000830184611462565b92915050565b61149581611334565b82525050565b6114a481611397565b82525050565b6114b381611450565b82525050565b7f4e487b7100000000000000000000000000000000000000000000000000000000600052602160045260246000fd5b600381106114f9576114f86114b9565b5b50565b600081905061150a826114e8565b919050565b600061151a826114fc565b9050919050565b61152a8161150f565b82525050565b60a082016000820151611546600085018261148c565b506020820151611559602085018261148c565b50604082015161156c604085018261149b565b50606082015161157f60608501826114aa565b5060808201516115926080850182611521565b50505050565b600060a0820190506115ad6000830184611530565b92915050565b6115bc81611397565b82525050565b60006020820190506115d760008301846115b3565b92915050565b6115e681611334565b82525050565b600060208201905061160160008301846115dd565b92915050565b60007fffffffffffffffffffffffffffffffff0000000000000000000000000000000082169050919050565b61163c81611607565b811461164757600080fd5b50565b60008135905061165981611633565b92915050565b600080604083850312156116765761167561132f565b5b60006116848582860161164a565b9250506020611695858286016113b8565b9150509250929050565b6116a881611450565b81146116b357600080fd5b50565b6000813590506116c58161169f565b92915050565b6000602082840312156116e1576116e061132f565b5b60006116ef848285016116b6565b91505092915050565b600081905092915050565b50565b60006117136000836116f8565b915061171e82611703565b600082019050919050565b600061173482611706565b9150819050919050565b600082825260208201905092915050565b7f5472616e73666572206f662065746865722066726f6d2074686520636f6e747260008201527f61637420746f2074686520636f6e7472616374206f776e6572206163636f756e60208201527f74206661696c6564000000000000000000000000000000000000000000000000604082015250565b60006117d160488361173e565b91506117dc8261174f565b606082019050919050565b60006020820190508181036000830152611800816117c4565b9050919050565b7f5472616e73666572204661696c65640000000000000000000000000000000000600082015250565b600061183d600f8361173e565b915061184882611807565b602082019050919050565b6000602082019050818103600083015261186c81611830565b9050919050565b6000819050919050565b61188e61188982611607565b611873565b82525050565b60008160601b9050919050565b60006118ac82611894565b9050919050565b60006118be826118a1565b9050919050565b6118d66118d182611450565b6118b3565b82525050565b60006118e8828561187d565b6010820191506118f882846118c5565b6014820191508190509392505050565b7f4e487b7100000000000000000000000000000000000000000000000000000000600052601160045260246000fd5b600061194282611334565b91507fffffffffffffffffffffffffffffffffffffffffffffffffffffffffffffffff82141561197557611974611908565b5b60018201905091905056fea2646970667358221220b10d6c6fb261f159d2e1e132541271fae86c2452372b1e4a22f4f9156670f51364736f6c634300080b0033",
  "immutableReferences": {},
  "source": "// SPDX-License-Identifier: MIT\npragma solidity >=0.4.22 <0.9.0;\n\ncontract CourseMarketplace {\n  enum State {\n    Purchased,\n    Activated,\n    Deactivated\n  }\n\n  struct Course {\n    uint256 id; // default to uint256 - 32 bytes (slot 1)\n    uint256 price; // 32 bytes (slot 2)\n    /**\n     * 8 * 32 = 256 bits hexadecimal characters,\n     * keccak256 encoded that is unique to the user, purchaser of the course\n     */\n    bytes32 proof; // 32 bytes (slot 3)\n    // user who has purchased the course\n    address owner; // 20 bytes (slot 4)\n    State state; // 1 byte (slot 4)\n  }\n\n  // Course Hash maps to Course\n  mapping(bytes32 => Course) private ownedCourses;\n\n  // Course Id maps to Course Hash\n  mapping(uint256 => bytes32) private ownedCoursesHash;\n\n  // total number of courses owned\n  uint256 private totalOwnedCourses; // defaults to a value of zero\n\n  address payable private owner;\n\n  bool public isStopped = false;\n\n  constructor() {\n    setContractOwner(msg.sender);\n  }\n\n  /**\n      Comments made after `///` just above the error declaration \n      is considered as the error message for the given error\n   */\n  /// You already own the selected course!\n  error CourseHasOwner();\n\n  /// You do not own the selected course!\n  error CourseNotOwned();\n\n  /// Only owner has the access!\n  error OnlyOwner();\n\n  /// Course doesn't exist!\n  error CourseNotFound();\n\n  /// Course should be in purchase or deactivated state to be activated!\n  error InvalidCourseState();\n\n  modifier onlyOwner() {\n    if (msg.sender != owner) {\n      revert OnlyOwner();\n    }\n    _;\n  }\n\n  modifier onlyWhenRunning() {\n    require(!isStopped);\n    _;\n  }\n\n  modifier onlyWhenStopped() {\n    require(isStopped);\n    _;\n  }\n\n  function setContractOwner(address newOwner) private {\n    owner = payable(newOwner);\n  }\n\n  function stopContract() external onlyOwner {\n    isStopped = true;\n  }\n\n  function resumeContract() external onlyOwner {\n    isStopped = false;\n  }\n\n  /**\n     Simply defining the `receive` pre-existing function will allow sending ether to the contract, \n     absence of this won't allow contract to receive any ether\n   */\n  receive() external payable {}\n\n  /**\n    Owner can withdraw the desired amount to their account\n   */\n  function withdraw(uint256 amount) external onlyOwner {\n    (bool success, ) = owner.call{value: amount}(\"\");\n    require(\n      success,\n      \"Transfer of ether from the contract to the contract owner account failed\"\n    );\n  }\n\n  /**\n    Emergency withdraw of all the contract's balance to the owner's account is allowed only when the contract is already stopped\n   */\n  function emergencyWithdraw() external onlyWhenStopped onlyOwner {\n    (bool success, ) = owner.call{value: address(this).balance}(\"\");\n    require(\n      success,\n      \"Transfer of ether from the contract to the contract owner account failed\"\n    );\n  }\n\n  /**\n    This will self destruct the contract and \n    transfer the balance of the contract to the address provided, \n    which here is the address of the contract owner\n   */\n  function selfDestruct() external onlyWhenStopped onlyOwner {\n    selfdestruct(owner);\n  }\n\n  function hasCourseOwnership(bytes32 courseHash) private view returns (bool) {\n    Course memory course = ownedCourses[courseHash];\n    return course.owner == msg.sender;\n  }\n\n  /**\n    Example,\n      - courseId  = 10 (ASCII) \n                  = 0x3130 (HEX) \n      => 16 bytes = 0x00000000000000000000000000003130 (32 characters)\n\n      - address = 0xAb8483F64d9C6d1EcF9b849Ae677dD3315835cb2 => 20 bytes (30 characters)\n\n      - abi.encodePacked(courseId, msg.sender)\n                  = 00000000000000000000000000003130Ab8483F64d9C6d1EcF9b849Ae677dD3315835cb2\n      \n      - keccak256(00000000000000000000000000003130Ab8483F64d9C6d1EcF9b849Ae677dD3315835cb2)\n                  = ff97578d8dd58d484dac933924a0f06f3ff39cc2843610754dfebd8770f807e5\n                  = courseHash\n                  = ff97578d8dd58d484dac933924a0f06f3ff39cc2843610754dfebd8770f807e5 (Output received from purchaseCourse function when run with above parameters on remix editor)\n      \n      - let proof = courseId-courseId (16 + 16 = 32 bytes, random value as of now)\n                  = 0x0000000000000000000000000000313000000000000000000000000000003130\n   */\n  function purchaseCourse(bytes16 courseId, bytes32 proof)\n    external\n    payable\n    onlyWhenRunning\n  {\n    /**\n        - abi.encodePacked(courseId, msg.sender) => simply concatenates courseId & sender address together\n        - keccak256 encodes the concatenated courseId & sender address to generate the final course hash\n     */\n    bytes32 courseHash = keccak256(abi.encodePacked(courseId, msg.sender));\n\n    if (hasCourseOwnership(courseHash)) {\n      revert CourseHasOwner();\n    }\n\n    uint256 id = totalOwnedCourses++;\n    ownedCoursesHash[id] = courseHash;\n    ownedCourses[courseHash] = Course({\n      id: id,\n      price: msg.value,\n      proof: proof,\n      owner: msg.sender,\n      state: State.Purchased\n    });\n  }\n\n  function repurchaseCourse(bytes32 courseHash)\n    external\n    payable\n    onlyWhenRunning\n  {\n    if (!isCourseCreated(courseHash)) {\n      revert CourseNotFound();\n    }\n\n    if (!hasCourseOwnership(courseHash)) {\n      revert CourseNotOwned();\n    }\n\n    Course storage course = ownedCourses[courseHash];\n    if (course.state != State.Deactivated) {\n      revert InvalidCourseState();\n    }\n\n    course.state = State.Purchased;\n    course.price = msg.value;\n  }\n\n  function activateCourse(bytes32 courseHash)\n    external\n    onlyWhenRunning\n    onlyOwner\n  {\n    if (!isCourseCreated(courseHash)) {\n      revert CourseNotFound();\n    }\n\n    Course storage course = ownedCourses[courseHash];\n\n    if (course.state == State.Purchased) {\n      course.state = State.Activated;\n    } else {\n      revert InvalidCourseState();\n    }\n  }\n\n  function deactivateCourse(bytes32 courseHash)\n    external\n    onlyWhenRunning\n    onlyOwner\n  {\n    if (!isCourseCreated(courseHash)) {\n      revert CourseNotFound();\n    }\n\n    Course storage course = ownedCourses[courseHash];\n\n    // if course is already activated there is no going back\n    // if already deactivated no need to perform this transaction\n    if (course.state != State.Purchased) {\n      revert InvalidCourseState();\n    }\n\n    // transfer the amount received during course purchase back to the owner\n    (bool success, ) = course.owner.call{value: course.price}(\"\");\n    require(success, \"Transfer Failed\");\n\n    course.state = State.Deactivated;\n    course.price = 0;\n  }\n\n  /**\n   *  Get the total number of courses\n   */\n  function getCourseCount() external view returns (uint256) {\n    return totalOwnedCourses;\n  }\n\n  /**\n   *  Get the hash of the course at a given index\n   */\n  function getCourseHashAtIndex(uint256 index) external view returns (bytes32) {\n    return ownedCoursesHash[index];\n  }\n\n  /**\n   *  Get course detail for a given course hash\n   */\n  function getCourseByHash(bytes32 courseHash)\n    external\n    view\n    returns (Course memory)\n  {\n    return ownedCourses[courseHash];\n  }\n\n  function transferOwnership(address newOwner) external onlyOwner {\n    setContractOwner(newOwner);\n  }\n\n  function getContractOwner() public view returns (address) {\n    return owner;\n  }\n\n  function isCourseCreated(bytes32 courseHash) private view returns (bool) {\n    address adr = address(0x00);\n    Course storage course = ownedCourses[courseHash];\n    return course.owner != adr;\n  }\n}\n\n/**\n  Commands:\n    - const instance = await CourseMarketplace.deployed();\n    - await instance.purchaseCourse(\"0x00000000000000000000000000003130\",\"0x0000000000000000000000000000313000000000000000000000000000003130\", { from: accounts[1], value: 2000000000 });\n    - (await instance.getCourseCount()).toString();\n    - await instance.getCourseHashAtIndex(0);\n    - await instance.getCourseByHash(\"0x54b70b6e9e56c766edcb9d5715690e437820188c9eb798fc4635e137262e30e5\");\n    \n    // accounts[0] is the owner\n    - await instance.getContractOwner();\n\n    // accounts[1] becomes new owner\n    - await instance.transferOwnership(\"0x1631d6e4b2921Bd8A78B32CC77eF57F231F8F7B2\");\n\n    // accounts[0] tries to transfer ownership to accounts[1], throws error since accounts[0] is no longer the owner to execute transferOwnership method\n    - await instance.transferOwnership(\"0x1631d6e4b2921Bd8A78B32CC77eF57F231F8F7B2\",{ from:\"0x24f968F05696b1F7322A8772f76eF46Bb3D38414\" });\n\n    // activate the course\n    - await instance.activateCourse(\"0x54b70b6e9e56c766edcb9d5715690e437820188c9eb798fc4635e137262e30e5\");\n\n    // stop the contract\n    - await instance.stopContract();\n\n    // resume the contract\n    - await instance.resumeContract();\n */\n",
  "sourcePath": "/Users/amitmahato/ReadyToWork/RND/Blockchain/marketplace-eth/contracts/CourseMarketplace.sol",
  "compiler": {
    "name": "solc",
    "version": "0.8.11+commit.d7f03943.Emscripten.clang"
  },
  "schemaVersion": "3.4.4",
  "updatedAt": "2022-09-21T09:36:10.517Z",
  "networkType": "ethereum",
  "devdoc": {
    "kind": "dev",
    "methods": {},
    "version": 1
  },
  "userdoc": {
    "errors": {
      "CourseHasOwner()": [
        {
          "notice": "You already own the selected course!"
        }
      ],
      "CourseNotFound()": [
        {
          "notice": "Course doesn't exist!"
        }
      ],
      "CourseNotOwned()": [
        {
          "notice": "You do not own the selected course!"
        }
      ],
      "InvalidCourseState()": [
        {
          "notice": "Course should be in purchase or deactivated state to be activated!"
        }
      ],
      "OnlyOwner()": [
        {
          "notice": "Only owner has the access!"
        }
      ]
    },
    "kind": "user",
    "methods": {
      "emergencyWithdraw()": {
        "notice": "Emergency withdraw of all the contract's balance to the owner's account is allowed only when the contract is already stopped"
      },
      "getCourseByHash(bytes32)": {
        "notice": "Get course detail for a given course hash"
      },
      "getCourseCount()": {
        "notice": "Get the total number of courses"
      },
      "getCourseHashAtIndex(uint256)": {
        "notice": "Get the hash of the course at a given index"
      },
      "purchaseCourse(bytes16,bytes32)": {
        "notice": "Example, - courseId  = 10 (ASCII)  = 0x3130 (HEX)  => 16 bytes = 0x00000000000000000000000000003130 (32 characters) - address = 0xAb8483F64d9C6d1EcF9b849Ae677dD3315835cb2 => 20 bytes (30 characters) - abi.encodePacked(courseId, msg.sender) = 00000000000000000000000000003130Ab8483F64d9C6d1EcF9b849Ae677dD3315835cb2 - keccak256(00000000000000000000000000003130Ab8483F64d9C6d1EcF9b849Ae677dD3315835cb2) = ff97578d8dd58d484dac933924a0f06f3ff39cc2843610754dfebd8770f807e5 = courseHash = ff97578d8dd58d484dac933924a0f06f3ff39cc2843610754dfebd8770f807e5 (Output received from purchaseCourse function when run with above parameters on remix editor) - let proof = courseId-courseId (16 + 16 = 32 bytes, random value as of now) = 0x0000000000000000000000000000313000000000000000000000000000003130"
      },
      "selfDestruct()": {
        "notice": "This will self destruct the contract and  transfer the balance of the contract to the address provided,  which here is the address of the contract owner"
      },
      "withdraw(uint256)": {
        "notice": "Owner can withdraw the desired amount to their account"
      }
    },
    "version": 1
  }
}