{
  "contractName": "CourseMarketplace",
  "abi": [
    {
      "inputs": [],
      "stateMutability": "nonpayable",
      "type": "constructor"
    },
    {
      "inputs": [],
      "name": "CourseHasOwner",
      "type": "error"
    },
    {
      "inputs": [],
      "name": "CourseNotFound",
      "type": "error"
    },
    {
      "inputs": [],
      "name": "CourseNotOwned",
      "type": "error"
    },
    {
      "inputs": [],
      "name": "InvalidCourseState",
      "type": "error"
    },
    {
      "inputs": [],
      "name": "OnlyOwner",
      "type": "error"
    },
    {
      "inputs": [],
      "name": "isStopped",
      "outputs": [
        {
          "internalType": "bool",
          "name": "",
          "type": "bool"
        }
      ],
      "stateMutability": "view",
      "type": "function",
      "constant": true
    },
    {
      "inputs": [],
      "name": "stopContract",
      "outputs": [],
      "stateMutability": "nonpayable",
      "type": "function"
    },
    {
      "inputs": [],
      "name": "resumeContract",
      "outputs": [],
      "stateMutability": "nonpayable",
      "type": "function"
    },
    {
      "inputs": [
        {
          "internalType": "bytes16",
          "name": "courseId",
          "type": "bytes16"
        },
        {
          "internalType": "bytes32",
          "name": "proof",
          "type": "bytes32"
        }
      ],
      "name": "purchaseCourse",
      "outputs": [],
      "stateMutability": "payable",
      "type": "function",
      "payable": true
    },
    {
      "inputs": [
        {
          "internalType": "bytes32",
          "name": "courseHash",
          "type": "bytes32"
        }
      ],
      "name": "repurchaseCourse",
      "outputs": [],
      "stateMutability": "payable",
      "type": "function",
      "payable": true
    },
    {
      "inputs": [
        {
          "internalType": "bytes32",
          "name": "courseHash",
          "type": "bytes32"
        }
      ],
      "name": "activateCourse",
      "outputs": [],
      "stateMutability": "nonpayable",
      "type": "function"
    },
    {
      "inputs": [
        {
          "internalType": "bytes32",
          "name": "courseHash",
          "type": "bytes32"
        }
      ],
      "name": "deactivateCourse",
      "outputs": [],
      "stateMutability": "nonpayable",
      "type": "function"
    },
    {
      "inputs": [],
      "name": "getCourseCount",
      "outputs": [
        {
          "internalType": "uint256",
          "name": "",
          "type": "uint256"
        }
      ],
      "stateMutability": "view",
      "type": "function",
      "constant": true
    },
    {
      "inputs": [
        {
          "internalType": "uint256",
          "name": "index",
          "type": "uint256"
        }
      ],
      "name": "getCourseHashAtIndex",
      "outputs": [
        {
          "internalType": "bytes32",
          "name": "",
          "type": "bytes32"
        }
      ],
      "stateMutability": "view",
      "type": "function",
      "constant": true
    },
    {
      "inputs": [
        {
          "internalType": "bytes32",
          "name": "courseHash",
          "type": "bytes32"
        }
      ],
      "name": "getCourseByHash",
      "outputs": [
        {
          "components": [
            {
              "internalType": "uint256",
              "name": "id",
              "type": "uint256"
            },
            {
              "internalType": "uint256",
              "name": "price",
              "type": "uint256"
            },
            {
              "internalType": "bytes32",
              "name": "proof",
              "type": "bytes32"
            },
            {
              "internalType": "address",
              "name": "owner",
              "type": "address"
            },
            {
              "internalType": "enum CourseMarketplace.State",
              "name": "state",
              "type": "uint8"
            }
          ],
          "internalType": "struct CourseMarketplace.Course",
          "name": "",
          "type": "tuple"
        }
      ],
      "stateMutability": "view",
      "type": "function",
      "constant": true
    },
    {
      "inputs": [
        {
          "internalType": "address",
          "name": "newOwner",
          "type": "address"
        }
      ],
      "name": "transferOwnership",
      "outputs": [],
      "stateMutability": "nonpayable",
      "type": "function"
    },
    {
      "inputs": [],
      "name": "getContractOwner",
      "outputs": [
        {
          "internalType": "address",
          "name": "",
          "type": "address"
        }
      ],
      "stateMutability": "view",
      "type": "function",
      "constant": true
    }
  ],
  "bytecode": "0x60806040526000600360146101000a81548160ff02191690831515021790555034801561002b57600080fd5b5061003b3361004060201b60201c565b610084565b80600360006101000a81548173ffffffffffffffffffffffffffffffffffffffff021916908373ffffffffffffffffffffffffffffffffffffffff16021790555050565b6114b6806100936000396000f3fe6080604052600436106100a75760003560e01c80636d11290b116100645780636d11290b1461019b578063935d7e6d146101d857806396cfda0614610201578063c4bc5da51461022c578063d76821cb14610243578063f2fde38b1461025f576100a7565b806312253a6c146100ac57806339262572146100c35780633f683b6a146100ec578063442890d5146101175780636136e1eb1461014257806362e4e6ac1461015e575b600080fd5b3480156100b857600080fd5b506100c1610288565b005b3480156100cf57600080fd5b506100ea60048036038101906100e59190610f22565b61032c565b005b3480156100f857600080fd5b506101016104c8565b60405161010e9190610f6a565b60405180910390f35b34801561012357600080fd5b5061012c6104db565b6040516101399190610fc6565b60405180910390f35b61015c60048036038101906101579190610f22565b610505565b005b34801561016a57600080fd5b5061018560048036038101906101809190610f22565b61065b565b60405161019291906110f7565b60405180910390f35b3480156101a757600080fd5b506101c260048036038101906101bd919061113e565b610736565b6040516101cf919061117a565b60405180910390f35b3480156101e457600080fd5b506101ff60048036038101906101fa9190610f22565b610753565b005b34801561020d57600080fd5b506102166109c8565b60405161022391906111a4565b60405180910390f35b34801561023857600080fd5b506102416109d2565b005b61025d60048036038101906102589190611217565b610a76565b005b34801561026b57600080fd5b5061028660048036038101906102819190611283565b610c30565b005b600360009054906101000a900473ffffffffffffffffffffffffffffffffffffffff1673ffffffffffffffffffffffffffffffffffffffff163373ffffffffffffffffffffffffffffffffffffffff161461030f576040517f5fc483c500000000000000000000000000000000000000000000000000000000815260040160405180910390fd5b6001600360146101000a81548160ff021916908315150217905550565b600360149054906101000a900460ff161561034657600080fd5b600360009054906101000a900473ffffffffffffffffffffffffffffffffffffffff1673ffffffffffffffffffffffffffffffffffffffff163373ffffffffffffffffffffffffffffffffffffffff16146103cd576040517f5fc483c500000000000000000000000000000000000000000000000000000000815260040160405180910390fd5b6103d681610cc3565b61040c576040517fee8fc9d100000000000000000000000000000000000000000000000000000000815260040160405180910390fd5b600080600083815260200190815260200160002090506000600281111561043657610435611018565b5b8160030160149054906101000a900460ff16600281111561045a57610459611018565b5b14156104925760018160030160146101000a81548160ff0219169083600281111561048857610487611018565b5b02179055506104c4565b6040517fe2b0190b00000000000000000000000000000000000000000000000000000000815260040160405180910390fd5b5050565b600360149054906101000a900460ff1681565b6000600360009054906101000a900473ffffffffffffffffffffffffffffffffffffffff16905090565b600360149054906101000a900460ff161561051f57600080fd5b61052881610cc3565b61055e576040517fee8fc9d100000000000000000000000000000000000000000000000000000000815260040160405180910390fd5b61056781610d3d565b61059d576040517f8d39572900000000000000000000000000000000000000000000000000000000815260040160405180910390fd5b600080600083815260200190815260200160002090506002808111156105c6576105c5611018565b5b8160030160149054906101000a900460ff1660028111156105ea576105e9611018565b5b14610621576040517fe2b0190b00000000000000000000000000000000000000000000000000000000815260040160405180910390fd5b60008160030160146101000a81548160ff0219169083600281111561064957610648611018565b5b02179055503481600101819055505050565b610663610e8d565b6000808381526020019081526020016000206040518060a00160405290816000820154815260200160018201548152602001600282015481526020016003820160009054906101000a900473ffffffffffffffffffffffffffffffffffffffff1673ffffffffffffffffffffffffffffffffffffffff1673ffffffffffffffffffffffffffffffffffffffff1681526020016003820160149054906101000a900460ff16600281111561071957610718611018565b5b600281111561072b5761072a611018565b5b815250509050919050565b600060016000838152602001908152602001600020549050919050565b600360149054906101000a900460ff161561076d57600080fd5b600360009054906101000a900473ffffffffffffffffffffffffffffffffffffffff1673ffffffffffffffffffffffffffffffffffffffff163373ffffffffffffffffffffffffffffffffffffffff16146107f4576040517f5fc483c500000000000000000000000000000000000000000000000000000000815260040160405180910390fd5b6107fd81610cc3565b610833576040517fee8fc9d100000000000000000000000000000000000000000000000000000000815260040160405180910390fd5b600080600083815260200190815260200160002090506000600281111561085d5761085c611018565b5b8160030160149054906101000a900460ff16600281111561088157610880611018565b5b146108b8576040517fe2b0190b00000000000000000000000000000000000000000000000000000000815260040160405180910390fd5b60008160030160009054906101000a900473ffffffffffffffffffffffffffffffffffffffff1673ffffffffffffffffffffffffffffffffffffffff168260010154604051610906906112e1565b60006040518083038185875af1925050503d8060008114610943576040519150601f19603f3d011682016040523d82523d6000602084013e610948565b606091505b505090508061098c576040517f08c379a000000000000000000000000000000000000000000000000000000000815260040161098390611353565b60405180910390fd5b60028260030160146101000a81548160ff021916908360028111156109b4576109b3611018565b5b021790555060008260010181905550505050565b6000600254905090565b600360009054906101000a900473ffffffffffffffffffffffffffffffffffffffff1673ffffffffffffffffffffffffffffffffffffffff163373ffffffffffffffffffffffffffffffffffffffff1614610a59576040517f5fc483c500000000000000000000000000000000000000000000000000000000815260040160405180910390fd5b6000600360146101000a81548160ff021916908315150217905550565b600360149054906101000a900460ff1615610a9057600080fd5b60008233604051602001610aa59291906113dc565b604051602081830303815290604052805190602001209050610ac681610d3d565b15610afd576040517fb0fc2d9700000000000000000000000000000000000000000000000000000000815260040160405180910390fd5b600060026000815480929190610b1290611437565b9190505590508160016000838152602001908152602001600020819055506040518060a001604052808281526020013481526020018481526020013373ffffffffffffffffffffffffffffffffffffffff16815260200160006002811115610b7d57610b7c611018565b5b81525060008084815260200190815260200160002060008201518160000155602082015181600101556040820151816002015560608201518160030160006101000a81548173ffffffffffffffffffffffffffffffffffffffff021916908373ffffffffffffffffffffffffffffffffffffffff16021790555060808201518160030160146101000a81548160ff02191690836002811115610c2257610c21611018565b5b021790555090505050505050565b600360009054906101000a900473ffffffffffffffffffffffffffffffffffffffff1673ffffffffffffffffffffffffffffffffffffffff163373ffffffffffffffffffffffffffffffffffffffff1614610cb7576040517f5fc483c500000000000000000000000000000000000000000000000000000000815260040160405180910390fd5b610cc081610e49565b50565b60008060009050600080600085815260200190815260200160002090508173ffffffffffffffffffffffffffffffffffffffff168160030160009054906101000a900473ffffffffffffffffffffffffffffffffffffffff1673ffffffffffffffffffffffffffffffffffffffff16141592505050919050565b6000806000808481526020019081526020016000206040518060a00160405290816000820154815260200160018201548152602001600282015481526020016003820160009054906101000a900473ffffffffffffffffffffffffffffffffffffffff1673ffffffffffffffffffffffffffffffffffffffff1673ffffffffffffffffffffffffffffffffffffffff1681526020016003820160149054906101000a900460ff166002811115610df657610df5611018565b5b6002811115610e0857610e07611018565b5b8152505090503373ffffffffffffffffffffffffffffffffffffffff16816060015173ffffffffffffffffffffffffffffffffffffffff1614915050919050565b80600360006101000a81548173ffffffffffffffffffffffffffffffffffffffff021916908373ffffffffffffffffffffffffffffffffffffffff16021790555050565b6040518060a00160405280600081526020016000815260200160008019168152602001600073ffffffffffffffffffffffffffffffffffffffff16815260200160006002811115610ee157610ee0611018565b5b81525090565b600080fd5b6000819050919050565b610eff81610eec565b8114610f0a57600080fd5b50565b600081359050610f1c81610ef6565b92915050565b600060208284031215610f3857610f37610ee7565b5b6000610f4684828501610f0d565b91505092915050565b60008115159050919050565b610f6481610f4f565b82525050565b6000602082019050610f7f6000830184610f5b565b92915050565b600073ffffffffffffffffffffffffffffffffffffffff82169050919050565b6000610fb082610f85565b9050919050565b610fc081610fa5565b82525050565b6000602082019050610fdb6000830184610fb7565b92915050565b6000819050919050565b610ff481610fe1565b82525050565b61100381610eec565b82525050565b61101281610fa5565b82525050565b7f4e487b7100000000000000000000000000000000000000000000000000000000600052602160045260246000fd5b6003811061105857611057611018565b5b50565b600081905061106982611047565b919050565b60006110798261105b565b9050919050565b6110898161106e565b82525050565b60a0820160008201516110a56000850182610feb565b5060208201516110b86020850182610feb565b5060408201516110cb6040850182610ffa565b5060608201516110de6060850182611009565b5060808201516110f16080850182611080565b50505050565b600060a08201905061110c600083018461108f565b92915050565b61111b81610fe1565b811461112657600080fd5b50565b60008135905061113881611112565b92915050565b60006020828403121561115457611153610ee7565b5b600061116284828501611129565b91505092915050565b61117481610eec565b82525050565b600060208201905061118f600083018461116b565b92915050565b61119e81610fe1565b82525050565b60006020820190506111b96000830184611195565b92915050565b60007fffffffffffffffffffffffffffffffff0000000000000000000000000000000082169050919050565b6111f4816111bf565b81146111ff57600080fd5b50565b600081359050611211816111eb565b92915050565b6000806040838503121561122e5761122d610ee7565b5b600061123c85828601611202565b925050602061124d85828601610f0d565b9150509250929050565b61126081610fa5565b811461126b57600080fd5b50565b60008135905061127d81611257565b92915050565b60006020828403121561129957611298610ee7565b5b60006112a78482850161126e565b91505092915050565b600081905092915050565b50565b60006112cb6000836112b0565b91506112d6826112bb565b600082019050919050565b60006112ec826112be565b9150819050919050565b600082825260208201905092915050565b7f5472616e73666572204661696c65640000000000000000000000000000000000600082015250565b600061133d600f836112f6565b915061134882611307565b602082019050919050565b6000602082019050818103600083015261136c81611330565b9050919050565b6000819050919050565b61138e611389826111bf565b611373565b82525050565b60008160601b9050919050565b60006113ac82611394565b9050919050565b60006113be826113a1565b9050919050565b6113d66113d182610fa5565b6113b3565b82525050565b60006113e8828561137d565b6010820191506113f882846113c5565b6014820191508190509392505050565b7f4e487b7100000000000000000000000000000000000000000000000000000000600052601160045260246000fd5b600061144282610fe1565b91507fffffffffffffffffffffffffffffffffffffffffffffffffffffffffffffffff82141561147557611474611408565b5b60018201905091905056fea26469706673582212204bf9a54530b475d2e1dfa031355acf953e17ef77bee5660b62c81ed3c253f23264736f6c634300080b0033",
  "immutableReferences": {},
  "source": "// SPDX-License-Identifier: MIT\npragma solidity >=0.4.22 <0.9.0;\n\ncontract CourseMarketplace {\n  enum State {\n    Purchased,\n    Activated,\n    Deactivated\n  }\n\n  struct Course {\n    uint256 id; // default to uint256 - 32 bytes (slot 1)\n    uint256 price; // 32 bytes (slot 2)\n    /**\n     * 8 * 32 = 256 bits hexadecimal characters,\n     * keccak256 encoded that is unique to the user, purchaser of the course\n     */\n    bytes32 proof; // 32 bytes (slot 3)\n    // user who has purchased the course\n    address owner; // 20 bytes (slot 4)\n    State state; // 1 byte (slot 4)\n  }\n\n  // Course Hash maps to Course\n  mapping(bytes32 => Course) private ownedCourses;\n\n  // Course Id maps to Course Hash\n  mapping(uint256 => bytes32) private ownedCoursesHash;\n\n  // total number of courses owned\n  uint256 private totalOwnedCourses; // defaults to a value of zero\n\n  address payable private owner;\n\n  bool public isStopped = false;\n\n  constructor() {\n    setContractOwner(msg.sender);\n  }\n\n  /**\n      Comments made after `///` just above the error declaration \n      is considered as the error message for the given error\n   */\n  /// You already own the selected course!\n  error CourseHasOwner();\n\n  /// You do not own the selected course!\n  error CourseNotOwned();\n\n  /// Only owner has the access!\n  error OnlyOwner();\n\n  /// Course doesn't exist!\n  error CourseNotFound();\n\n  /// Course should be in purchase or deactivated state to be activated!\n  error InvalidCourseState();\n\n  modifier onlyOwner() {\n    if (msg.sender != owner) {\n      revert OnlyOwner();\n    }\n    _;\n  }\n\n  modifier onlyWhenRunning() {\n    require(!isStopped);\n    _;\n  }\n\n  function setContractOwner(address newOwner) private {\n    owner = payable(newOwner);\n  }\n\n  function stopContract() external onlyOwner {\n    isStopped = true;\n  }\n\n  function resumeContract() external onlyOwner {\n    isStopped = false;\n  }\n\n  function hasCourseOwnership(bytes32 courseHash) private view returns (bool) {\n    Course memory course = ownedCourses[courseHash];\n    return course.owner == msg.sender;\n  }\n\n  /**\n    Example,\n      - courseId  = 10 (ASCII) \n                  = 0x3130 (HEX) \n      => 16 bytes = 0x00000000000000000000000000003130 (32 characters)\n\n      - address = 0xAb8483F64d9C6d1EcF9b849Ae677dD3315835cb2 => 20 bytes (30 characters)\n\n      - abi.encodePacked(courseId, msg.sender)\n                  = 00000000000000000000000000003130Ab8483F64d9C6d1EcF9b849Ae677dD3315835cb2\n      \n      - keccak256(00000000000000000000000000003130Ab8483F64d9C6d1EcF9b849Ae677dD3315835cb2)\n                  = ff97578d8dd58d484dac933924a0f06f3ff39cc2843610754dfebd8770f807e5\n                  = courseHash\n                  = ff97578d8dd58d484dac933924a0f06f3ff39cc2843610754dfebd8770f807e5 (Output received from purchaseCourse function when run with above parameters on remix editor)\n      \n      - let proof = courseId-courseId (16 + 16 = 32 bytes, random value as of now)\n                  = 0x0000000000000000000000000000313000000000000000000000000000003130\n   */\n  function purchaseCourse(bytes16 courseId, bytes32 proof)\n    external\n    payable\n    onlyWhenRunning\n  {\n    /**\n        - abi.encodePacked(courseId, msg.sender) => simply concatenates courseId & sender address together\n        - keccak256 encodes the concatenated courseId & sender address to generate the final course hash\n     */\n    bytes32 courseHash = keccak256(abi.encodePacked(courseId, msg.sender));\n\n    if (hasCourseOwnership(courseHash)) {\n      revert CourseHasOwner();\n    }\n\n    uint256 id = totalOwnedCourses++;\n    ownedCoursesHash[id] = courseHash;\n    ownedCourses[courseHash] = Course({\n      id: id,\n      price: msg.value,\n      proof: proof,\n      owner: msg.sender,\n      state: State.Purchased\n    });\n  }\n\n  function repurchaseCourse(bytes32 courseHash)\n    external\n    payable\n    onlyWhenRunning\n  {\n    if (!isCourseCreated(courseHash)) {\n      revert CourseNotFound();\n    }\n\n    if (!hasCourseOwnership(courseHash)) {\n      revert CourseNotOwned();\n    }\n\n    Course storage course = ownedCourses[courseHash];\n    if (course.state != State.Deactivated) {\n      revert InvalidCourseState();\n    }\n\n    course.state = State.Purchased;\n    course.price = msg.value;\n  }\n\n  function activateCourse(bytes32 courseHash)\n    external\n    onlyWhenRunning\n    onlyOwner\n  {\n    if (!isCourseCreated(courseHash)) {\n      revert CourseNotFound();\n    }\n\n    Course storage course = ownedCourses[courseHash];\n\n    if (course.state == State.Purchased) {\n      course.state = State.Activated;\n    } else {\n      revert InvalidCourseState();\n    }\n  }\n\n  function deactivateCourse(bytes32 courseHash)\n    external\n    onlyWhenRunning\n    onlyOwner\n  {\n    if (!isCourseCreated(courseHash)) {\n      revert CourseNotFound();\n    }\n\n    Course storage course = ownedCourses[courseHash];\n\n    // if course is already activated there is no going back\n    // if already deactivated no need to perform this transaction\n    if (course.state != State.Purchased) {\n      revert InvalidCourseState();\n    }\n\n    // transfer the amount received during course purchase back to the owner\n    (bool success, ) = course.owner.call{value: course.price}(\"\");\n    require(success, \"Transfer Failed\");\n\n    course.state = State.Deactivated;\n    course.price = 0;\n  }\n\n  /**\n   *  Get the total number of courses\n   */\n  function getCourseCount() external view returns (uint256) {\n    return totalOwnedCourses;\n  }\n\n  /**\n   *  Get the hash of the course at a given index\n   */\n  function getCourseHashAtIndex(uint256 index) external view returns (bytes32) {\n    return ownedCoursesHash[index];\n  }\n\n  /**\n   *  Get course detail for a given course hash\n   */\n  function getCourseByHash(bytes32 courseHash)\n    external\n    view\n    returns (Course memory)\n  {\n    return ownedCourses[courseHash];\n  }\n\n  function transferOwnership(address newOwner) external onlyOwner {\n    setContractOwner(newOwner);\n  }\n\n  function getContractOwner() public view returns (address) {\n    return owner;\n  }\n\n  function isCourseCreated(bytes32 courseHash) private view returns (bool) {\n    address adr = address(0x00);\n    Course storage course = ownedCourses[courseHash];\n    return course.owner != adr;\n  }\n}\n\n/**\n  Commands:\n    - const instance = await CourseMarketplace.deployed();\n    - await instance.purchaseCourse(\"0x00000000000000000000000000003130\",\"0x0000000000000000000000000000313000000000000000000000000000003130\", { from: accounts[1], value: 2000000000 });\n    - (await instance.getCourseCount()).toString();\n    - await instance.getCourseHashAtIndex(0);\n    - await instance.getCourseByHash(\"0x54b70b6e9e56c766edcb9d5715690e437820188c9eb798fc4635e137262e30e5\");\n    \n    // accounts[0] is the owner\n    - await instance.getContractOwner();\n\n    // accounts[1] becomes new owner\n    - await instance.transferOwnership(\"0x1631d6e4b2921Bd8A78B32CC77eF57F231F8F7B2\");\n\n    // accounts[0] tries to transfer ownership to accounts[1], throws error since accounts[0] is no longer the owner to execute transferOwnership method\n    - await instance.transferOwnership(\"0x1631d6e4b2921Bd8A78B32CC77eF57F231F8F7B2\",{ from:\"0x24f968F05696b1F7322A8772f76eF46Bb3D38414\" });\n\n    // activate the course\n    - await instance.activateCourse(\"0x54b70b6e9e56c766edcb9d5715690e437820188c9eb798fc4635e137262e30e5\");\n\n */\n",
  "sourcePath": "/Users/amitmahato/ReadyToWork/RND/Blockchain/marketplace-eth/contracts/CourseMarketplace.sol",
  "compiler": {
    "name": "solc",
    "version": "0.8.11+commit.d7f03943.Emscripten.clang"
  },
  "schemaVersion": "3.4.4",
  "updatedAt": "2022-09-21T08:50:06.946Z",
  "networkType": "ethereum",
  "devdoc": {
    "kind": "dev",
    "methods": {},
    "version": 1
  },
  "userdoc": {
    "errors": {
      "CourseHasOwner()": [
        {
          "notice": "You already own the selected course!"
        }
      ],
      "CourseNotFound()": [
        {
          "notice": "Course doesn't exist!"
        }
      ],
      "CourseNotOwned()": [
        {
          "notice": "You do not own the selected course!"
        }
      ],
      "InvalidCourseState()": [
        {
          "notice": "Course should be in purchase or deactivated state to be activated!"
        }
      ],
      "OnlyOwner()": [
        {
          "notice": "Only owner has the access!"
        }
      ]
    },
    "kind": "user",
    "methods": {
      "getCourseByHash(bytes32)": {
        "notice": "Get course detail for a given course hash"
      },
      "getCourseCount()": {
        "notice": "Get the total number of courses"
      },
      "getCourseHashAtIndex(uint256)": {
        "notice": "Get the hash of the course at a given index"
      },
      "purchaseCourse(bytes16,bytes32)": {
        "notice": "Example, - courseId  = 10 (ASCII)  = 0x3130 (HEX)  => 16 bytes = 0x00000000000000000000000000003130 (32 characters) - address = 0xAb8483F64d9C6d1EcF9b849Ae677dD3315835cb2 => 20 bytes (30 characters) - abi.encodePacked(courseId, msg.sender) = 00000000000000000000000000003130Ab8483F64d9C6d1EcF9b849Ae677dD3315835cb2 - keccak256(00000000000000000000000000003130Ab8483F64d9C6d1EcF9b849Ae677dD3315835cb2) = ff97578d8dd58d484dac933924a0f06f3ff39cc2843610754dfebd8770f807e5 = courseHash = ff97578d8dd58d484dac933924a0f06f3ff39cc2843610754dfebd8770f807e5 (Output received from purchaseCourse function when run with above parameters on remix editor) - let proof = courseId-courseId (16 + 16 = 32 bytes, random value as of now) = 0x0000000000000000000000000000313000000000000000000000000000003130"
      }
    },
    "version": 1
  }
}