{
  "contractName": "CourseMarketplace",
  "abi": [
    {
      "inputs": [
        {
          "internalType": "bytes16",
          "name": "courseId",
          "type": "bytes16"
        },
        {
          "internalType": "bytes32",
          "name": "proof",
          "type": "bytes32"
        }
      ],
      "name": "purchaseCourse",
      "outputs": [
        {
          "internalType": "bytes32",
          "name": "",
          "type": "bytes32"
        }
      ],
      "stateMutability": "payable",
      "type": "function",
      "payable": true
    }
  ],
  "bytecode": "0x608060405234801561001057600080fd5b50610285806100206000396000f3fe60806040526004361061001e5760003560e01c8063d76821cb14610023575b600080fd5b61003d6004803603810190610038919061011e565b610053565b60405161004a919061016d565b60405180910390f35b6000808333604051602001610069929190610223565b6040516020818303038152906040528051906020012090508091505092915050565b600080fd5b60007fffffffffffffffffffffffffffffffff0000000000000000000000000000000082169050919050565b6100c581610090565b81146100d057600080fd5b50565b6000813590506100e2816100bc565b92915050565b6000819050919050565b6100fb816100e8565b811461010657600080fd5b50565b600081359050610118816100f2565b92915050565b600080604083850312156101355761013461008b565b5b6000610143858286016100d3565b925050602061015485828601610109565b9150509250929050565b610167816100e8565b82525050565b6000602082019050610182600083018461015e565b92915050565b6000819050919050565b6101a361019e82610090565b610188565b82525050565b600073ffffffffffffffffffffffffffffffffffffffff82169050919050565b60006101d4826101a9565b9050919050565b60008160601b9050919050565b60006101f3826101db565b9050919050565b6000610205826101e8565b9050919050565b61021d610218826101c9565b6101fa565b82525050565b600061022f8285610192565b60108201915061023f828461020c565b601482019150819050939250505056fea2646970667358221220218626bfcc132a1cc97cb1ca2b1867a6372ac5d9ce9e775a71d864bd70e4d7de64736f6c634300080b0033",
  "immutableReferences": {},
  "source": "// SPDX-License-Identifier: MIT\npragma solidity >=0.4.22 <0.9.0;\n\ncontract CourseMarketplace {\n  enum State {\n    Purchased,\n    Activated,\n    Deactivated\n  }\n\n  struct Course {\n    uint256 id; // default to uint256 - 32 bytes (slot 1)\n    uint256 price; // 32 bytes (slot 2)\n    /**\n     * 8 * 32 = 256 bits hexadecimal characters,\n     * keccak256 encoded that is unique to the user, purchaser of the course\n     */\n    bytes32 proof; // 32 bytes (slot 3)\n    // user who has purchased the course\n    address owner; // 20 bytes (slot 4)\n    State state; // 1 byte (slot 4)\n  }\n\n  /**\n    Example,\n      - courseId  = 10 (ASCII) \n                  = 0x3130 (HEX) \n      => 16 bytes = 0x00000000000000000000000000003130 (32 characters)\n\n      - address = 0xAb8483F64d9C6d1EcF9b849Ae677dD3315835cb2 => 20 bytes (30 characters)\n\n      - abi.encodePacked(courseId, msg.sender)\n                  = 00000000000000000000000000003130Ab8483F64d9C6d1EcF9b849Ae677dD3315835cb2\n      \n      - keccak256(00000000000000000000000000003130Ab8483F64d9C6d1EcF9b849Ae677dD3315835cb2)\n                  = ff97578d8dd58d484dac933924a0f06f3ff39cc2843610754dfebd8770f807e5\n                  = courseHash\n                  = ff97578d8dd58d484dac933924a0f06f3ff39cc2843610754dfebd8770f807e5 (Output received from purchaseCourse function when run with above parameters on remix editor)\n      \n      - let proof = courseId-courseId (16 + 16 = 32 bytes, random value as of now)\n                  = 0x0000000000000000000000000000313000000000000000000000000000003130\n   */\n  function purchaseCourse(bytes16 courseId, bytes32 proof)\n    external\n    payable\n    returns (bytes32)\n  {\n    bytes32 courseHash = keccak256(abi.encodePacked(courseId, msg.sender));\n    return courseHash;\n  }\n}\n\n/**\n  Commands:\n    - const instance = await CourseMarketplace.deployed();\n    - instance.purchaseCourse(\"0x00000000000000000000000000003130\",\"0x0000000000000000000000000000313000000000000000000000000000003130\")\n */\n",
  "sourcePath": "/Users/amitmahato/ReadyToWork/RND/Blockchain/marketplace-eth/contracts/CourseMarketplace.sol",
  "compiler": {
    "name": "solc",
    "version": "0.8.11+commit.d7f03943.Emscripten.clang"
  },
  "schemaVersion": "3.4.4",
  "updatedAt": "2022-09-12T17:40:05.464Z",
  "networkType": "ethereum",
  "devdoc": {
    "kind": "dev",
    "methods": {},
    "version": 1
  },
  "userdoc": {
    "kind": "user",
    "methods": {
      "purchaseCourse(bytes16,bytes32)": {
        "notice": "Example, - courseId  = 10 (ASCII)  = 0x3130 (HEX)  => 16 bytes = 0x00000000000000000000000000003130 (32 characters) - address = 0xAb8483F64d9C6d1EcF9b849Ae677dD3315835cb2 => 20 bytes (30 characters) - abi.encodePacked(courseId, msg.sender) = 00000000000000000000000000003130Ab8483F64d9C6d1EcF9b849Ae677dD3315835cb2 - keccak256(00000000000000000000000000003130Ab8483F64d9C6d1EcF9b849Ae677dD3315835cb2) = ff97578d8dd58d484dac933924a0f06f3ff39cc2843610754dfebd8770f807e5 = courseHash = ff97578d8dd58d484dac933924a0f06f3ff39cc2843610754dfebd8770f807e5 (Output received from purchaseCourse function when run with above parameters on remix editor) - let proof = courseId-courseId (16 + 16 = 32 bytes, random value as of now) = 0x0000000000000000000000000000313000000000000000000000000000003130"
      }
    },
    "version": 1
  }
}