{
  "contractName": "CourseMarketplace",
  "abi": [
    {
      "inputs": [],
      "name": "CourseHasOwner",
      "type": "error"
    },
    {
      "inputs": [
        {
          "internalType": "bytes16",
          "name": "courseId",
          "type": "bytes16"
        },
        {
          "internalType": "bytes32",
          "name": "proof",
          "type": "bytes32"
        }
      ],
      "name": "purchaseCourse",
      "outputs": [],
      "stateMutability": "payable",
      "type": "function",
      "payable": true
    },
    {
      "inputs": [],
      "name": "getCourseCount",
      "outputs": [
        {
          "internalType": "uint256",
          "name": "",
          "type": "uint256"
        }
      ],
      "stateMutability": "view",
      "type": "function",
      "constant": true
    },
    {
      "inputs": [
        {
          "internalType": "uint256",
          "name": "index",
          "type": "uint256"
        }
      ],
      "name": "getCourseHashAtIndex",
      "outputs": [
        {
          "internalType": "bytes32",
          "name": "",
          "type": "bytes32"
        }
      ],
      "stateMutability": "view",
      "type": "function",
      "constant": true
    },
    {
      "inputs": [
        {
          "internalType": "bytes32",
          "name": "courseHash",
          "type": "bytes32"
        }
      ],
      "name": "getCourseByHash",
      "outputs": [
        {
          "components": [
            {
              "internalType": "uint256",
              "name": "id",
              "type": "uint256"
            },
            {
              "internalType": "uint256",
              "name": "price",
              "type": "uint256"
            },
            {
              "internalType": "bytes32",
              "name": "proof",
              "type": "bytes32"
            },
            {
              "internalType": "address",
              "name": "owner",
              "type": "address"
            },
            {
              "internalType": "enum CourseMarketplace.State",
              "name": "state",
              "type": "uint8"
            }
          ],
          "internalType": "struct CourseMarketplace.Course",
          "name": "",
          "type": "tuple"
        }
      ],
      "stateMutability": "view",
      "type": "function",
      "constant": true
    }
  ],
  "bytecode": "0x608060405234801561001057600080fd5b50610960806100206000396000f3fe60806040526004361061003f5760003560e01c806362e4e6ac146100445780636d11290b1461008157806396cfda06146100be578063d76821cb146100e9575b600080fd5b34801561005057600080fd5b5061006b60048036038101906100669190610548565b610105565b60405161007891906106bd565b60405180910390f35b34801561008d57600080fd5b506100a860048036038101906100a39190610704565b6101e0565b6040516100b59190610740565b60405180910390f35b3480156100ca57600080fd5b506100d36101fd565b6040516100e0919061076a565b60405180910390f35b61010360048036038101906100fe91906107dd565b610207565b005b61010d6104b3565b6000808381526020019081526020016000206040518060a00160405290816000820154815260200160018201548152602001600282015481526020016003820160009054906101000a900473ffffffffffffffffffffffffffffffffffffffff1673ffffffffffffffffffffffffffffffffffffffff1673ffffffffffffffffffffffffffffffffffffffff1681526020016003820160149054906101000a900460ff1660028111156101c3576101c26105de565b5b60028111156101d5576101d46105de565b5b815250509050919050565b600060016000838152602001908152602001600020549050919050565b6000600254905090565b6000823360405160200161021c929190610886565b60405160208183030381529060405280519060200120905061023d816103a7565b15610274576040517fb0fc2d9700000000000000000000000000000000000000000000000000000000815260040160405180910390fd5b600060026000815480929190610289906108e1565b9190505590508160016000838152602001908152602001600020819055506040518060a001604052808281526020013481526020018481526020013373ffffffffffffffffffffffffffffffffffffffff168152602001600060028111156102f4576102f36105de565b5b81525060008084815260200190815260200160002060008201518160000155602082015181600101556040820151816002015560608201518160030160006101000a81548173ffffffffffffffffffffffffffffffffffffffff021916908373ffffffffffffffffffffffffffffffffffffffff16021790555060808201518160030160146101000a81548160ff02191690836002811115610399576103986105de565b5b021790555090505050505050565b6000806000808481526020019081526020016000206040518060a00160405290816000820154815260200160018201548152602001600282015481526020016003820160009054906101000a900473ffffffffffffffffffffffffffffffffffffffff1673ffffffffffffffffffffffffffffffffffffffff1673ffffffffffffffffffffffffffffffffffffffff1681526020016003820160149054906101000a900460ff1660028111156104605761045f6105de565b5b6002811115610472576104716105de565b5b8152505090503373ffffffffffffffffffffffffffffffffffffffff16816060015173ffffffffffffffffffffffffffffffffffffffff1614915050919050565b6040518060a00160405280600081526020016000815260200160008019168152602001600073ffffffffffffffffffffffffffffffffffffffff16815260200160006002811115610507576105066105de565b5b81525090565b600080fd5b6000819050919050565b61052581610512565b811461053057600080fd5b50565b6000813590506105428161051c565b92915050565b60006020828403121561055e5761055d61050d565b5b600061056c84828501610533565b91505092915050565b6000819050919050565b61058881610575565b82525050565b61059781610512565b82525050565b600073ffffffffffffffffffffffffffffffffffffffff82169050919050565b60006105c88261059d565b9050919050565b6105d8816105bd565b82525050565b7f4e487b7100000000000000000000000000000000000000000000000000000000600052602160045260246000fd5b6003811061061e5761061d6105de565b5b50565b600081905061062f8261060d565b919050565b600061063f82610621565b9050919050565b61064f81610634565b82525050565b60a08201600082015161066b600085018261057f565b50602082015161067e602085018261057f565b506040820151610691604085018261058e565b5060608201516106a460608501826105cf565b5060808201516106b76080850182610646565b50505050565b600060a0820190506106d26000830184610655565b92915050565b6106e181610575565b81146106ec57600080fd5b50565b6000813590506106fe816106d8565b92915050565b60006020828403121561071a5761071961050d565b5b6000610728848285016106ef565b91505092915050565b61073a81610512565b82525050565b60006020820190506107556000830184610731565b92915050565b61076481610575565b82525050565b600060208201905061077f600083018461075b565b92915050565b60007fffffffffffffffffffffffffffffffff0000000000000000000000000000000082169050919050565b6107ba81610785565b81146107c557600080fd5b50565b6000813590506107d7816107b1565b92915050565b600080604083850312156107f4576107f361050d565b5b6000610802858286016107c8565b925050602061081385828601610533565b9150509250929050565b6000819050919050565b61083861083382610785565b61081d565b82525050565b60008160601b9050919050565b60006108568261083e565b9050919050565b60006108688261084b565b9050919050565b61088061087b826105bd565b61085d565b82525050565b60006108928285610827565b6010820191506108a2828461086f565b6014820191508190509392505050565b7f4e487b7100000000000000000000000000000000000000000000000000000000600052601160045260246000fd5b60006108ec82610575565b91507fffffffffffffffffffffffffffffffffffffffffffffffffffffffffffffffff82141561091f5761091e6108b2565b5b60018201905091905056fea26469706673582212207fce7e34af1b777c218209ef1227c0b70c634693c5614d90de5bc11a7f2eed3b64736f6c634300080b0033",
  "immutableReferences": {},
  "source": "// SPDX-License-Identifier: MIT\npragma solidity >=0.4.22 <0.9.0;\n\ncontract CourseMarketplace {\n  enum State {\n    Purchased,\n    Activated,\n    Deactivated\n  }\n\n  struct Course {\n    uint256 id; // default to uint256 - 32 bytes (slot 1)\n    uint256 price; // 32 bytes (slot 2)\n    /**\n     * 8 * 32 = 256 bits hexadecimal characters,\n     * keccak256 encoded that is unique to the user, purchaser of the course\n     */\n    bytes32 proof; // 32 bytes (slot 3)\n    // user who has purchased the course\n    address owner; // 20 bytes (slot 4)\n    State state; // 1 byte (slot 4)\n  }\n\n  // Course Hash maps to Course\n  mapping(bytes32 => Course) private ownedCourses;\n\n  // Course Id maps to Course Hash\n  mapping(uint256 => bytes32) private ownedCoursesHash;\n\n  // total number of courses owned\n  uint256 private totalOwnedCourses; // defaults to a value of zero\n\n  /**\n      Comments made after `///` just above the error declaration \n      is considered as the error message for the given error\n   */\n  /// You already own the selected course!\n  error CourseHasOwner();\n\n  function hasCourseOwnership(bytes32 courseHash) private view returns (bool) {\n    Course memory course = ownedCourses[courseHash];\n    return course.owner == msg.sender;\n  }\n\n  /**\n    Example,\n      - courseId  = 10 (ASCII) \n                  = 0x3130 (HEX) \n      => 16 bytes = 0x00000000000000000000000000003130 (32 characters)\n\n      - address = 0xAb8483F64d9C6d1EcF9b849Ae677dD3315835cb2 => 20 bytes (30 characters)\n\n      - abi.encodePacked(courseId, msg.sender)\n                  = 00000000000000000000000000003130Ab8483F64d9C6d1EcF9b849Ae677dD3315835cb2\n      \n      - keccak256(00000000000000000000000000003130Ab8483F64d9C6d1EcF9b849Ae677dD3315835cb2)\n                  = ff97578d8dd58d484dac933924a0f06f3ff39cc2843610754dfebd8770f807e5\n                  = courseHash\n                  = ff97578d8dd58d484dac933924a0f06f3ff39cc2843610754dfebd8770f807e5 (Output received from purchaseCourse function when run with above parameters on remix editor)\n      \n      - let proof = courseId-courseId (16 + 16 = 32 bytes, random value as of now)\n                  = 0x0000000000000000000000000000313000000000000000000000000000003130\n   */\n  function purchaseCourse(bytes16 courseId, bytes32 proof) external payable {\n    /**\n        - abi.encodePacked(courseId, msg.sender) => simply concatenates courseId & sender address together\n        - keccak256 encodes the concatenated courseId & sender address to generate the final course hash\n     */\n    bytes32 courseHash = keccak256(abi.encodePacked(courseId, msg.sender));\n\n    if (hasCourseOwnership(courseHash)) {\n      revert CourseHasOwner();\n    }\n\n    uint256 id = totalOwnedCourses++;\n    ownedCoursesHash[id] = courseHash;\n    ownedCourses[courseHash] = Course({\n      id: id,\n      price: msg.value,\n      proof: proof,\n      owner: msg.sender,\n      state: State.Purchased\n    });\n  }\n\n  /**\n   *  Get the total number of courses\n   */\n  function getCourseCount() external view returns (uint256) {\n    return totalOwnedCourses;\n  }\n\n  /**\n   *  Get the total number of courses\n   */\n  function getCourseHashAtIndex(uint256 index) external view returns (bytes32) {\n    return ownedCoursesHash[index];\n  }\n\n  /**\n   *  Get the total number of courses\n   */\n  function getCourseByHash(bytes32 courseHash)\n    external\n    view\n    returns (Course memory)\n  {\n    return ownedCourses[courseHash];\n  }\n}\n\n/**\n  Commands:\n    - const instance = await CourseMarketplace.deployed();\n    - await instance.purchaseCourse(\"0x00000000000000000000000000003130\",\"0x0000000000000000000000000000313000000000000000000000000000003130\", { from: accounts[1], value: 2000000000 });\n    - (await instance.getCourseCount()).toString();\n    - await instance.getCourseHashAtIndex(0);\n    - await instance.getCourseByHash(\"0x54b70b6e9e56c766edcb9d5715690e437820188c9eb798fc4635e137262e30e5\");\n */\n",
  "sourcePath": "/Users/amitmahato/ReadyToWork/RND/Blockchain/marketplace-eth/contracts/CourseMarketplace.sol",
  "compiler": {
    "name": "solc",
    "version": "0.8.11+commit.d7f03943.Emscripten.clang"
  },
  "schemaVersion": "3.4.4",
  "updatedAt": "2022-09-12T19:02:35.601Z",
  "networkType": "ethereum",
  "devdoc": {
    "kind": "dev",
    "methods": {},
    "version": 1
  },
  "userdoc": {
    "errors": {
      "CourseHasOwner()": [
        {
          "notice": "You already own the selected course!"
        }
      ]
    },
    "kind": "user",
    "methods": {
      "getCourseByHash(bytes32)": {
        "notice": "Get the total number of courses"
      },
      "getCourseCount()": {
        "notice": "Get the total number of courses"
      },
      "getCourseHashAtIndex(uint256)": {
        "notice": "Get the total number of courses"
      },
      "purchaseCourse(bytes16,bytes32)": {
        "notice": "Example, - courseId  = 10 (ASCII)  = 0x3130 (HEX)  => 16 bytes = 0x00000000000000000000000000003130 (32 characters) - address = 0xAb8483F64d9C6d1EcF9b849Ae677dD3315835cb2 => 20 bytes (30 characters) - abi.encodePacked(courseId, msg.sender) = 00000000000000000000000000003130Ab8483F64d9C6d1EcF9b849Ae677dD3315835cb2 - keccak256(00000000000000000000000000003130Ab8483F64d9C6d1EcF9b849Ae677dD3315835cb2) = ff97578d8dd58d484dac933924a0f06f3ff39cc2843610754dfebd8770f807e5 = courseHash = ff97578d8dd58d484dac933924a0f06f3ff39cc2843610754dfebd8770f807e5 (Output received from purchaseCourse function when run with above parameters on remix editor) - let proof = courseId-courseId (16 + 16 = 32 bytes, random value as of now) = 0x0000000000000000000000000000313000000000000000000000000000003130"
      }
    },
    "version": 1
  }
}