{
  "contractName": "CourseMarketplace",
  "abi": [
    {
      "inputs": [],
      "stateMutability": "nonpayable",
      "type": "constructor"
    },
    {
      "inputs": [],
      "name": "CourseHasOwner",
      "type": "error"
    },
    {
      "inputs": [],
      "name": "CourseNotFound",
      "type": "error"
    },
    {
      "inputs": [],
      "name": "CourseNotOwned",
      "type": "error"
    },
    {
      "inputs": [],
      "name": "InvalidCourseState",
      "type": "error"
    },
    {
      "inputs": [],
      "name": "OnlyOwner",
      "type": "error"
    },
    {
      "inputs": [
        {
          "internalType": "bytes16",
          "name": "courseId",
          "type": "bytes16"
        },
        {
          "internalType": "bytes32",
          "name": "proof",
          "type": "bytes32"
        }
      ],
      "name": "purchaseCourse",
      "outputs": [],
      "stateMutability": "payable",
      "type": "function",
      "payable": true
    },
    {
      "inputs": [
        {
          "internalType": "bytes32",
          "name": "courseHash",
          "type": "bytes32"
        }
      ],
      "name": "repurchaseCourse",
      "outputs": [],
      "stateMutability": "payable",
      "type": "function",
      "payable": true
    },
    {
      "inputs": [
        {
          "internalType": "bytes32",
          "name": "courseHash",
          "type": "bytes32"
        }
      ],
      "name": "activateCourse",
      "outputs": [],
      "stateMutability": "nonpayable",
      "type": "function"
    },
    {
      "inputs": [
        {
          "internalType": "bytes32",
          "name": "courseHash",
          "type": "bytes32"
        }
      ],
      "name": "deactivateCourse",
      "outputs": [],
      "stateMutability": "nonpayable",
      "type": "function"
    },
    {
      "inputs": [],
      "name": "getCourseCount",
      "outputs": [
        {
          "internalType": "uint256",
          "name": "",
          "type": "uint256"
        }
      ],
      "stateMutability": "view",
      "type": "function",
      "constant": true
    },
    {
      "inputs": [
        {
          "internalType": "uint256",
          "name": "index",
          "type": "uint256"
        }
      ],
      "name": "getCourseHashAtIndex",
      "outputs": [
        {
          "internalType": "bytes32",
          "name": "",
          "type": "bytes32"
        }
      ],
      "stateMutability": "view",
      "type": "function",
      "constant": true
    },
    {
      "inputs": [
        {
          "internalType": "bytes32",
          "name": "courseHash",
          "type": "bytes32"
        }
      ],
      "name": "getCourseByHash",
      "outputs": [
        {
          "components": [
            {
              "internalType": "uint256",
              "name": "id",
              "type": "uint256"
            },
            {
              "internalType": "uint256",
              "name": "price",
              "type": "uint256"
            },
            {
              "internalType": "bytes32",
              "name": "proof",
              "type": "bytes32"
            },
            {
              "internalType": "address",
              "name": "owner",
              "type": "address"
            },
            {
              "internalType": "enum CourseMarketplace.State",
              "name": "state",
              "type": "uint8"
            }
          ],
          "internalType": "struct CourseMarketplace.Course",
          "name": "",
          "type": "tuple"
        }
      ],
      "stateMutability": "view",
      "type": "function",
      "constant": true
    },
    {
      "inputs": [
        {
          "internalType": "address",
          "name": "newOwner",
          "type": "address"
        }
      ],
      "name": "transferOwnership",
      "outputs": [],
      "stateMutability": "nonpayable",
      "type": "function"
    },
    {
      "inputs": [],
      "name": "getContractOwner",
      "outputs": [
        {
          "internalType": "address",
          "name": "",
          "type": "address"
        }
      ],
      "stateMutability": "view",
      "type": "function",
      "constant": true
    }
  ],
  "bytecode": "0x608060405234801561001057600080fd5b506100203361002560201b60201c565b610069565b80600360006101000a81548173ffffffffffffffffffffffffffffffffffffffff021916908373ffffffffffffffffffffffffffffffffffffffff16021790555050565b611243806100786000396000f3fe6080604052600436106100865760003560e01c80636d11290b116100595780636d11290b14610138578063935d7e6d1461017557806396cfda061461019e578063d76821cb146101c9578063f2fde38b146101e557610086565b8063392625721461008b578063442890d5146100b45780636136e1eb146100df57806362e4e6ac146100fb575b600080fd5b34801561009757600080fd5b506100b260048036038101906100ad9190610ce5565b61020e565b005b3480156100c057600080fd5b506100c9610390565b6040516100d69190610d53565b60405180910390f35b6100f960048036038101906100f49190610ce5565b6103ba565b005b34801561010757600080fd5b50610122600480360381019061011d9190610ce5565b6104f6565b60405161012f9190610e84565b60405180910390f35b34801561014457600080fd5b5061015f600480360381019061015a9190610ecb565b6105d1565b60405161016c9190610f07565b60405180910390f35b34801561018157600080fd5b5061019c60048036038101906101979190610ce5565b6105ee565b005b3480156101aa57600080fd5b506101b3610849565b6040516101c09190610f31565b60405180910390f35b6101e360048036038101906101de9190610fa4565b610853565b005b3480156101f157600080fd5b5061020c60048036038101906102079190611010565b6109f3565b005b600360009054906101000a900473ffffffffffffffffffffffffffffffffffffffff1673ffffffffffffffffffffffffffffffffffffffff163373ffffffffffffffffffffffffffffffffffffffff1614610295576040517f5fc483c500000000000000000000000000000000000000000000000000000000815260040160405180910390fd5b61029e81610a86565b6102d4576040517fee8fc9d100000000000000000000000000000000000000000000000000000000815260040160405180910390fd5b60008060008381526020019081526020016000209050600060028111156102fe576102fd610da5565b5b8160030160149054906101000a900460ff16600281111561032257610321610da5565b5b141561035a5760018160030160146101000a81548160ff021916908360028111156103505761034f610da5565b5b021790555061038c565b6040517fe2b0190b00000000000000000000000000000000000000000000000000000000815260040160405180910390fd5b5050565b6000600360009054906101000a900473ffffffffffffffffffffffffffffffffffffffff16905090565b6103c381610a86565b6103f9576040517fee8fc9d100000000000000000000000000000000000000000000000000000000815260040160405180910390fd5b61040281610b00565b610438576040517f8d39572900000000000000000000000000000000000000000000000000000000815260040160405180910390fd5b6000806000838152602001908152602001600020905060028081111561046157610460610da5565b5b8160030160149054906101000a900460ff16600281111561048557610484610da5565b5b146104bc576040517fe2b0190b00000000000000000000000000000000000000000000000000000000815260040160405180910390fd5b60008160030160146101000a81548160ff021916908360028111156104e4576104e3610da5565b5b02179055503481600101819055505050565b6104fe610c50565b6000808381526020019081526020016000206040518060a00160405290816000820154815260200160018201548152602001600282015481526020016003820160009054906101000a900473ffffffffffffffffffffffffffffffffffffffff1673ffffffffffffffffffffffffffffffffffffffff1673ffffffffffffffffffffffffffffffffffffffff1681526020016003820160149054906101000a900460ff1660028111156105b4576105b3610da5565b5b60028111156105c6576105c5610da5565b5b815250509050919050565b600060016000838152602001908152602001600020549050919050565b600360009054906101000a900473ffffffffffffffffffffffffffffffffffffffff1673ffffffffffffffffffffffffffffffffffffffff163373ffffffffffffffffffffffffffffffffffffffff1614610675576040517f5fc483c500000000000000000000000000000000000000000000000000000000815260040160405180910390fd5b61067e81610a86565b6106b4576040517fee8fc9d100000000000000000000000000000000000000000000000000000000815260040160405180910390fd5b60008060008381526020019081526020016000209050600060028111156106de576106dd610da5565b5b8160030160149054906101000a900460ff16600281111561070257610701610da5565b5b14610739576040517fe2b0190b00000000000000000000000000000000000000000000000000000000815260040160405180910390fd5b60008160030160009054906101000a900473ffffffffffffffffffffffffffffffffffffffff1673ffffffffffffffffffffffffffffffffffffffff1682600101546040516107879061106e565b60006040518083038185875af1925050503d80600081146107c4576040519150601f19603f3d011682016040523d82523d6000602084013e6107c9565b606091505b505090508061080d576040517f08c379a0000000000000000000000000000000000000000000000000000000008152600401610804906110e0565b60405180910390fd5b60028260030160146101000a81548160ff0219169083600281111561083557610834610da5565b5b021790555060008260010181905550505050565b6000600254905090565b60008233604051602001610868929190611169565b60405160208183030381529060405280519060200120905061088981610b00565b156108c0576040517fb0fc2d9700000000000000000000000000000000000000000000000000000000815260040160405180910390fd5b6000600260008154809291906108d5906111c4565b9190505590508160016000838152602001908152602001600020819055506040518060a001604052808281526020013481526020018481526020013373ffffffffffffffffffffffffffffffffffffffff168152602001600060028111156109405761093f610da5565b5b81525060008084815260200190815260200160002060008201518160000155602082015181600101556040820151816002015560608201518160030160006101000a81548173ffffffffffffffffffffffffffffffffffffffff021916908373ffffffffffffffffffffffffffffffffffffffff16021790555060808201518160030160146101000a81548160ff021916908360028111156109e5576109e4610da5565b5b021790555090505050505050565b600360009054906101000a900473ffffffffffffffffffffffffffffffffffffffff1673ffffffffffffffffffffffffffffffffffffffff163373ffffffffffffffffffffffffffffffffffffffff1614610a7a576040517f5fc483c500000000000000000000000000000000000000000000000000000000815260040160405180910390fd5b610a8381610c0c565b50565b60008060009050600080600085815260200190815260200160002090508173ffffffffffffffffffffffffffffffffffffffff168160030160009054906101000a900473ffffffffffffffffffffffffffffffffffffffff1673ffffffffffffffffffffffffffffffffffffffff16141592505050919050565b6000806000808481526020019081526020016000206040518060a00160405290816000820154815260200160018201548152602001600282015481526020016003820160009054906101000a900473ffffffffffffffffffffffffffffffffffffffff1673ffffffffffffffffffffffffffffffffffffffff1673ffffffffffffffffffffffffffffffffffffffff1681526020016003820160149054906101000a900460ff166002811115610bb957610bb8610da5565b5b6002811115610bcb57610bca610da5565b5b8152505090503373ffffffffffffffffffffffffffffffffffffffff16816060015173ffffffffffffffffffffffffffffffffffffffff1614915050919050565b80600360006101000a81548173ffffffffffffffffffffffffffffffffffffffff021916908373ffffffffffffffffffffffffffffffffffffffff16021790555050565b6040518060a00160405280600081526020016000815260200160008019168152602001600073ffffffffffffffffffffffffffffffffffffffff16815260200160006002811115610ca457610ca3610da5565b5b81525090565b600080fd5b6000819050919050565b610cc281610caf565b8114610ccd57600080fd5b50565b600081359050610cdf81610cb9565b92915050565b600060208284031215610cfb57610cfa610caa565b5b6000610d0984828501610cd0565b91505092915050565b600073ffffffffffffffffffffffffffffffffffffffff82169050919050565b6000610d3d82610d12565b9050919050565b610d4d81610d32565b82525050565b6000602082019050610d686000830184610d44565b92915050565b6000819050919050565b610d8181610d6e565b82525050565b610d9081610caf565b82525050565b610d9f81610d32565b82525050565b7f4e487b7100000000000000000000000000000000000000000000000000000000600052602160045260246000fd5b60038110610de557610de4610da5565b5b50565b6000819050610df682610dd4565b919050565b6000610e0682610de8565b9050919050565b610e1681610dfb565b82525050565b60a082016000820151610e326000850182610d78565b506020820151610e456020850182610d78565b506040820151610e586040850182610d87565b506060820151610e6b6060850182610d96565b506080820151610e7e6080850182610e0d565b50505050565b600060a082019050610e996000830184610e1c565b92915050565b610ea881610d6e565b8114610eb357600080fd5b50565b600081359050610ec581610e9f565b92915050565b600060208284031215610ee157610ee0610caa565b5b6000610eef84828501610eb6565b91505092915050565b610f0181610caf565b82525050565b6000602082019050610f1c6000830184610ef8565b92915050565b610f2b81610d6e565b82525050565b6000602082019050610f466000830184610f22565b92915050565b60007fffffffffffffffffffffffffffffffff0000000000000000000000000000000082169050919050565b610f8181610f4c565b8114610f8c57600080fd5b50565b600081359050610f9e81610f78565b92915050565b60008060408385031215610fbb57610fba610caa565b5b6000610fc985828601610f8f565b9250506020610fda85828601610cd0565b9150509250929050565b610fed81610d32565b8114610ff857600080fd5b50565b60008135905061100a81610fe4565b92915050565b60006020828403121561102657611025610caa565b5b600061103484828501610ffb565b91505092915050565b600081905092915050565b50565b600061105860008361103d565b915061106382611048565b600082019050919050565b60006110798261104b565b9150819050919050565b600082825260208201905092915050565b7f5472616e73666572204661696c65640000000000000000000000000000000000600082015250565b60006110ca600f83611083565b91506110d582611094565b602082019050919050565b600060208201905081810360008301526110f9816110bd565b9050919050565b6000819050919050565b61111b61111682610f4c565b611100565b82525050565b60008160601b9050919050565b600061113982611121565b9050919050565b600061114b8261112e565b9050919050565b61116361115e82610d32565b611140565b82525050565b6000611175828561110a565b6010820191506111858284611152565b6014820191508190509392505050565b7f4e487b7100000000000000000000000000000000000000000000000000000000600052601160045260246000fd5b60006111cf82610d6e565b91507fffffffffffffffffffffffffffffffffffffffffffffffffffffffffffffffff82141561120257611201611195565b5b60018201905091905056fea264697066735822122003ff6506aa2eeb9f427d57936d876f7dd458f109dc3757660e1d091431f2ba0464736f6c634300080b0033",
  "immutableReferences": {},
  "source": "// SPDX-License-Identifier: MIT\npragma solidity >=0.4.22 <0.9.0;\n\ncontract CourseMarketplace {\n  enum State {\n    Purchased,\n    Activated,\n    Deactivated\n  }\n\n  struct Course {\n    uint256 id; // default to uint256 - 32 bytes (slot 1)\n    uint256 price; // 32 bytes (slot 2)\n    /**\n     * 8 * 32 = 256 bits hexadecimal characters,\n     * keccak256 encoded that is unique to the user, purchaser of the course\n     */\n    bytes32 proof; // 32 bytes (slot 3)\n    // user who has purchased the course\n    address owner; // 20 bytes (slot 4)\n    State state; // 1 byte (slot 4)\n  }\n\n  // Course Hash maps to Course\n  mapping(bytes32 => Course) private ownedCourses;\n\n  // Course Id maps to Course Hash\n  mapping(uint256 => bytes32) private ownedCoursesHash;\n\n  // total number of courses owned\n  uint256 private totalOwnedCourses; // defaults to a value of zero\n\n  address payable private owner;\n\n  constructor() {\n    setContractOwner(msg.sender);\n  }\n\n  /**\n      Comments made after `///` just above the error declaration \n      is considered as the error message for the given error\n   */\n  /// You already own the selected course!\n  error CourseHasOwner();\n\n  /// You do not own the selected course!\n  error CourseNotOwned();\n\n  /// Only owner has the access!\n  error OnlyOwner();\n\n  /// Course doesn't exist!\n  error CourseNotFound();\n\n  /// Course should be in purchase or deactivated state to be activated!\n  error InvalidCourseState();\n\n  modifier onlyOwner() {\n    if (msg.sender != owner) {\n      revert OnlyOwner();\n    }\n    _;\n  }\n\n  function setContractOwner(address newOwner) private {\n    owner = payable(newOwner);\n  }\n\n  function hasCourseOwnership(bytes32 courseHash) private view returns (bool) {\n    Course memory course = ownedCourses[courseHash];\n    return course.owner == msg.sender;\n  }\n\n  /**\n    Example,\n      - courseId  = 10 (ASCII) \n                  = 0x3130 (HEX) \n      => 16 bytes = 0x00000000000000000000000000003130 (32 characters)\n\n      - address = 0xAb8483F64d9C6d1EcF9b849Ae677dD3315835cb2 => 20 bytes (30 characters)\n\n      - abi.encodePacked(courseId, msg.sender)\n                  = 00000000000000000000000000003130Ab8483F64d9C6d1EcF9b849Ae677dD3315835cb2\n      \n      - keccak256(00000000000000000000000000003130Ab8483F64d9C6d1EcF9b849Ae677dD3315835cb2)\n                  = ff97578d8dd58d484dac933924a0f06f3ff39cc2843610754dfebd8770f807e5\n                  = courseHash\n                  = ff97578d8dd58d484dac933924a0f06f3ff39cc2843610754dfebd8770f807e5 (Output received from purchaseCourse function when run with above parameters on remix editor)\n      \n      - let proof = courseId-courseId (16 + 16 = 32 bytes, random value as of now)\n                  = 0x0000000000000000000000000000313000000000000000000000000000003130\n   */\n  function purchaseCourse(bytes16 courseId, bytes32 proof) external payable {\n    /**\n        - abi.encodePacked(courseId, msg.sender) => simply concatenates courseId & sender address together\n        - keccak256 encodes the concatenated courseId & sender address to generate the final course hash\n     */\n    bytes32 courseHash = keccak256(abi.encodePacked(courseId, msg.sender));\n\n    if (hasCourseOwnership(courseHash)) {\n      revert CourseHasOwner();\n    }\n\n    uint256 id = totalOwnedCourses++;\n    ownedCoursesHash[id] = courseHash;\n    ownedCourses[courseHash] = Course({\n      id: id,\n      price: msg.value,\n      proof: proof,\n      owner: msg.sender,\n      state: State.Purchased\n    });\n  }\n\n  function repurchaseCourse(bytes32 courseHash) external payable {\n    if (!isCourseCreated(courseHash)) {\n      revert CourseNotFound();\n    }\n\n    if (!hasCourseOwnership(courseHash)) {\n      revert CourseNotOwned();\n    }\n\n    Course storage course = ownedCourses[courseHash];\n    if (course.state != State.Deactivated) {\n      revert InvalidCourseState();\n    }\n\n    course.state = State.Purchased;\n    course.price = msg.value;\n  }\n\n  function activateCourse(bytes32 courseHash) external onlyOwner {\n    if (!isCourseCreated(courseHash)) {\n      revert CourseNotFound();\n    }\n\n    Course storage course = ownedCourses[courseHash];\n\n    if (course.state == State.Purchased) {\n      course.state = State.Activated;\n    } else {\n      revert InvalidCourseState();\n    }\n  }\n\n  function deactivateCourse(bytes32 courseHash) external onlyOwner {\n    if (!isCourseCreated(courseHash)) {\n      revert CourseNotFound();\n    }\n\n    Course storage course = ownedCourses[courseHash];\n\n    // if course is already activated there is no going back\n    // if already deactivated no need to perform this transaction\n    if (course.state != State.Purchased) {\n      revert InvalidCourseState();\n    }\n\n    // transfer the amount received during course purchase back to the owner\n    (bool success, ) = course.owner.call{value: course.price}(\"\");\n    require(success, \"Transfer Failed\");\n\n    course.state = State.Deactivated;\n    course.price = 0;\n  }\n\n  /**\n   *  Get the total number of courses\n   */\n  function getCourseCount() external view returns (uint256) {\n    return totalOwnedCourses;\n  }\n\n  /**\n   *  Get the hash of the course at a given index\n   */\n  function getCourseHashAtIndex(uint256 index) external view returns (bytes32) {\n    return ownedCoursesHash[index];\n  }\n\n  /**\n   *  Get course detail for a given course hash\n   */\n  function getCourseByHash(bytes32 courseHash)\n    external\n    view\n    returns (Course memory)\n  {\n    return ownedCourses[courseHash];\n  }\n\n  function transferOwnership(address newOwner) external onlyOwner {\n    setContractOwner(newOwner);\n  }\n\n  function getContractOwner() public view returns (address) {\n    return owner;\n  }\n\n  function isCourseCreated(bytes32 courseHash) private view returns (bool) {\n    address adr = address(0x00);\n    Course storage course = ownedCourses[courseHash];\n    return course.owner != adr;\n  }\n}\n\n/**\n  Commands:\n    - const instance = await CourseMarketplace.deployed();\n    - await instance.purchaseCourse(\"0x00000000000000000000000000003130\",\"0x0000000000000000000000000000313000000000000000000000000000003130\", { from: accounts[1], value: 2000000000 });\n    - (await instance.getCourseCount()).toString();\n    - await instance.getCourseHashAtIndex(0);\n    - await instance.getCourseByHash(\"0x54b70b6e9e56c766edcb9d5715690e437820188c9eb798fc4635e137262e30e5\");\n    \n    // accounts[0] is the owner\n    - await instance.getContractOwner();\n\n    // accounts[1] becomes new owner\n    - await instance.transferOwnership(\"0x1631d6e4b2921Bd8A78B32CC77eF57F231F8F7B2\");\n\n    // accounts[0] tries to transfer ownership to accounts[1], throws error since accounts[0] is no longer the owner to execute transferOwnership method\n    - await instance.transferOwnership(\"0x1631d6e4b2921Bd8A78B32CC77eF57F231F8F7B2\",{ from:\"0x24f968F05696b1F7322A8772f76eF46Bb3D38414\" });\n\n    // activate the course\n    - await instance.activateCourse(\"0x54b70b6e9e56c766edcb9d5715690e437820188c9eb798fc4635e137262e30e5\");\n\n */\n",
  "sourcePath": "/Users/amitmahato/ReadyToWork/RND/Blockchain/marketplace-eth/contracts/CourseMarketplace.sol",
  "compiler": {
    "name": "solc",
    "version": "0.8.11+commit.d7f03943.Emscripten.clang"
  },
  "schemaVersion": "3.4.4",
  "updatedAt": "2022-09-18T18:08:20.089Z",
  "networkType": "ethereum",
  "devdoc": {
    "kind": "dev",
    "methods": {},
    "version": 1
  },
  "userdoc": {
    "errors": {
      "CourseHasOwner()": [
        {
          "notice": "You already own the selected course!"
        }
      ],
      "CourseNotFound()": [
        {
          "notice": "Course doesn't exist!"
        }
      ],
      "CourseNotOwned()": [
        {
          "notice": "You do not own the selected course!"
        }
      ],
      "InvalidCourseState()": [
        {
          "notice": "Course should be in purchase or deactivated state to be activated!"
        }
      ],
      "OnlyOwner()": [
        {
          "notice": "Only owner has the access!"
        }
      ]
    },
    "kind": "user",
    "methods": {
      "getCourseByHash(bytes32)": {
        "notice": "Get course detail for a given course hash"
      },
      "getCourseCount()": {
        "notice": "Get the total number of courses"
      },
      "getCourseHashAtIndex(uint256)": {
        "notice": "Get the hash of the course at a given index"
      },
      "purchaseCourse(bytes16,bytes32)": {
        "notice": "Example, - courseId  = 10 (ASCII)  = 0x3130 (HEX)  => 16 bytes = 0x00000000000000000000000000003130 (32 characters) - address = 0xAb8483F64d9C6d1EcF9b849Ae677dD3315835cb2 => 20 bytes (30 characters) - abi.encodePacked(courseId, msg.sender) = 00000000000000000000000000003130Ab8483F64d9C6d1EcF9b849Ae677dD3315835cb2 - keccak256(00000000000000000000000000003130Ab8483F64d9C6d1EcF9b849Ae677dD3315835cb2) = ff97578d8dd58d484dac933924a0f06f3ff39cc2843610754dfebd8770f807e5 = courseHash = ff97578d8dd58d484dac933924a0f06f3ff39cc2843610754dfebd8770f807e5 (Output received from purchaseCourse function when run with above parameters on remix editor) - let proof = courseId-courseId (16 + 16 = 32 bytes, random value as of now) = 0x0000000000000000000000000000313000000000000000000000000000003130"
      }
    },
    "version": 1
  }
}