{
  "contractName": "CourseMarketplace",
  "abi": [
    {
      "inputs": [
        {
          "internalType": "bytes16",
          "name": "courseId",
          "type": "bytes16"
        },
        {
          "internalType": "bytes32",
          "name": "proof",
          "type": "bytes32"
        }
      ],
      "name": "purchaseCourse",
      "outputs": [],
      "stateMutability": "payable",
      "type": "function",
      "payable": true
    },
    {
      "inputs": [],
      "name": "getCourseCount",
      "outputs": [
        {
          "internalType": "uint256",
          "name": "",
          "type": "uint256"
        }
      ],
      "stateMutability": "view",
      "type": "function",
      "constant": true
    },
    {
      "inputs": [
        {
          "internalType": "uint256",
          "name": "index",
          "type": "uint256"
        }
      ],
      "name": "getCourseAtIndex",
      "outputs": [
        {
          "internalType": "bytes32",
          "name": "",
          "type": "bytes32"
        }
      ],
      "stateMutability": "view",
      "type": "function",
      "constant": true
    },
    {
      "inputs": [
        {
          "internalType": "bytes32",
          "name": "courseHash",
          "type": "bytes32"
        }
      ],
      "name": "getCourseByHash",
      "outputs": [
        {
          "components": [
            {
              "internalType": "uint256",
              "name": "id",
              "type": "uint256"
            },
            {
              "internalType": "uint256",
              "name": "price",
              "type": "uint256"
            },
            {
              "internalType": "bytes32",
              "name": "proof",
              "type": "bytes32"
            },
            {
              "internalType": "address",
              "name": "owner",
              "type": "address"
            },
            {
              "internalType": "enum CourseMarketplace.State",
              "name": "state",
              "type": "uint8"
            }
          ],
          "internalType": "struct CourseMarketplace.Course",
          "name": "",
          "type": "tuple"
        }
      ],
      "stateMutability": "view",
      "type": "function",
      "constant": true
    }
  ],
  "bytecode": "0x608060405234801561001057600080fd5b50610814806100206000396000f3fe60806040526004361061003f5760003560e01c80633ae6d8671461004457806362e4e6ac1461008157806396cfda06146100be578063d76821cb146100e9575b600080fd5b34801561005057600080fd5b5061006b600480360381019061006691906103fc565b610105565b6040516100789190610442565b60405180910390f35b34801561008d57600080fd5b506100a860048036038101906100a39190610489565b610122565b6040516100b591906105f4565b60405180910390f35b3480156100ca57600080fd5b506100d36101fd565b6040516100e0919061061e565b60405180910390f35b61010360048036038101906100fe9190610691565b610207565b005b600060016000838152602001908152602001600020549050919050565b61012a610367565b6000808381526020019081526020016000206040518060a00160405290816000820154815260200160018201548152602001600282015481526020016003820160009054906101000a900473ffffffffffffffffffffffffffffffffffffffff1673ffffffffffffffffffffffffffffffffffffffff1673ffffffffffffffffffffffffffffffffffffffff1681526020016003820160149054906101000a900460ff1660028111156101e0576101df610515565b5b60028111156101f2576101f1610515565b5b815250509050919050565b6000600254905090565b6000823360405160200161021c92919061073a565b60405160208183030381529060405280519060200120905060006002600081548092919061024990610795565b9190505590508160016000838152602001908152602001600020819055506040518060a001604052808281526020013481526020018481526020013373ffffffffffffffffffffffffffffffffffffffff168152602001600060028111156102b4576102b3610515565b5b81525060008084815260200190815260200160002060008201518160000155602082015181600101556040820151816002015560608201518160030160006101000a81548173ffffffffffffffffffffffffffffffffffffffff021916908373ffffffffffffffffffffffffffffffffffffffff16021790555060808201518160030160146101000a81548160ff0219169083600281111561035957610358610515565b5b021790555090505050505050565b6040518060a00160405280600081526020016000815260200160008019168152602001600073ffffffffffffffffffffffffffffffffffffffff168152602001600060028111156103bb576103ba610515565b5b81525090565b600080fd5b6000819050919050565b6103d9816103c6565b81146103e457600080fd5b50565b6000813590506103f6816103d0565b92915050565b600060208284031215610412576104116103c1565b5b6000610420848285016103e7565b91505092915050565b6000819050919050565b61043c81610429565b82525050565b60006020820190506104576000830184610433565b92915050565b61046681610429565b811461047157600080fd5b50565b6000813590506104838161045d565b92915050565b60006020828403121561049f5761049e6103c1565b5b60006104ad84828501610474565b91505092915050565b6104bf816103c6565b82525050565b6104ce81610429565b82525050565b600073ffffffffffffffffffffffffffffffffffffffff82169050919050565b60006104ff826104d4565b9050919050565b61050f816104f4565b82525050565b7f4e487b7100000000000000000000000000000000000000000000000000000000600052602160045260246000fd5b6003811061055557610554610515565b5b50565b600081905061056682610544565b919050565b600061057682610558565b9050919050565b6105868161056b565b82525050565b60a0820160008201516105a260008501826104b6565b5060208201516105b560208501826104b6565b5060408201516105c860408501826104c5565b5060608201516105db6060850182610506565b5060808201516105ee608085018261057d565b50505050565b600060a082019050610609600083018461058c565b92915050565b610618816103c6565b82525050565b6000602082019050610633600083018461060f565b92915050565b60007fffffffffffffffffffffffffffffffff0000000000000000000000000000000082169050919050565b61066e81610639565b811461067957600080fd5b50565b60008135905061068b81610665565b92915050565b600080604083850312156106a8576106a76103c1565b5b60006106b68582860161067c565b92505060206106c785828601610474565b9150509250929050565b6000819050919050565b6106ec6106e782610639565b6106d1565b82525050565b60008160601b9050919050565b600061070a826106f2565b9050919050565b600061071c826106ff565b9050919050565b61073461072f826104f4565b610711565b82525050565b600061074682856106db565b6010820191506107568284610723565b6014820191508190509392505050565b7f4e487b7100000000000000000000000000000000000000000000000000000000600052601160045260246000fd5b60006107a0826103c6565b91507fffffffffffffffffffffffffffffffffffffffffffffffffffffffffffffffff8214156107d3576107d2610766565b5b60018201905091905056fea264697066735822122040b382aad446d9e1a91310ddd4d6547fc3b04e7872d4faccf63503bbc41dde6264736f6c634300080b0033",
  "immutableReferences": {},
  "source": "// SPDX-License-Identifier: MIT\npragma solidity >=0.4.22 <0.9.0;\n\ncontract CourseMarketplace {\n  enum State {\n    Purchased,\n    Activated,\n    Deactivated\n  }\n\n  struct Course {\n    uint256 id; // default to uint256 - 32 bytes (slot 1)\n    uint256 price; // 32 bytes (slot 2)\n    /**\n     * 8 * 32 = 256 bits hexadecimal characters,\n     * keccak256 encoded that is unique to the user, purchaser of the course\n     */\n    bytes32 proof; // 32 bytes (slot 3)\n    // user who has purchased the course\n    address owner; // 20 bytes (slot 4)\n    State state; // 1 byte (slot 4)\n  }\n\n  // Course Hash maps to Course\n  mapping(bytes32 => Course) private ownedCourses;\n\n  // Course Id maps to Course Hash\n  mapping(uint256 => bytes32) private ownedCoursesHash;\n\n  // total number of courses owned\n  uint256 private totalOwnedCourses; // defaults to a value of zero\n\n  /**\n    Example,\n      - courseId  = 10 (ASCII) \n                  = 0x3130 (HEX) \n      => 16 bytes = 0x00000000000000000000000000003130 (32 characters)\n\n      - address = 0xAb8483F64d9C6d1EcF9b849Ae677dD3315835cb2 => 20 bytes (30 characters)\n\n      - abi.encodePacked(courseId, msg.sender)\n                  = 00000000000000000000000000003130Ab8483F64d9C6d1EcF9b849Ae677dD3315835cb2\n      \n      - keccak256(00000000000000000000000000003130Ab8483F64d9C6d1EcF9b849Ae677dD3315835cb2)\n                  = ff97578d8dd58d484dac933924a0f06f3ff39cc2843610754dfebd8770f807e5\n                  = courseHash\n                  = ff97578d8dd58d484dac933924a0f06f3ff39cc2843610754dfebd8770f807e5 (Output received from purchaseCourse function when run with above parameters on remix editor)\n      \n      - let proof = courseId-courseId (16 + 16 = 32 bytes, random value as of now)\n                  = 0x0000000000000000000000000000313000000000000000000000000000003130\n   */\n  function purchaseCourse(bytes16 courseId, bytes32 proof) external payable {\n    /**\n        - abi.encodePacked(courseId, msg.sender) => simply concatenates courseId & sender address together\n        - keccak256 encodes the concatenated courseId & sender address to generate the final course hash\n     */\n    bytes32 courseHash = keccak256(abi.encodePacked(courseId, msg.sender));\n    uint256 id = totalOwnedCourses++;\n    ownedCoursesHash[id] = courseHash;\n    ownedCourses[courseHash] = Course({\n      id: id,\n      price: msg.value,\n      proof: proof,\n      owner: msg.sender,\n      state: State.Purchased\n    });\n  }\n\n  /**\n   *  Get the total number of courses\n   */\n  function getCourseCount() external view returns (uint256) {\n    return totalOwnedCourses;\n  }\n\n  /**\n   *  Get the total number of courses\n   */\n  function getCourseAtIndex(uint256 index) external view returns (bytes32) {\n    return ownedCoursesHash[index];\n  }\n\n  /**\n   *  Get the total number of courses\n   */\n  function getCourseByHash(bytes32 courseHash)\n    external\n    view\n    returns (Course memory)\n  {\n    return ownedCourses[courseHash];\n  }\n}\n\n/**\n  Commands:\n    - const instance = await CourseMarketplace.deployed();\n    - instance.purchaseCourse(\"0x00000000000000000000000000003130\",\"0x0000000000000000000000000000313000000000000000000000000000003130\")\n */\n",
  "sourcePath": "/Users/amitmahato/ReadyToWork/RND/Blockchain/marketplace-eth/contracts/CourseMarketplace.sol",
  "compiler": {
    "name": "solc",
    "version": "0.8.11+commit.d7f03943.Emscripten.clang"
  },
  "schemaVersion": "3.4.4",
  "updatedAt": "2022-09-12T18:42:40.700Z",
  "networkType": "ethereum",
  "devdoc": {
    "kind": "dev",
    "methods": {},
    "version": 1
  },
  "userdoc": {
    "kind": "user",
    "methods": {
      "getCourseAtIndex(uint256)": {
        "notice": "Get the total number of courses"
      },
      "getCourseByHash(bytes32)": {
        "notice": "Get the total number of courses"
      },
      "getCourseCount()": {
        "notice": "Get the total number of courses"
      },
      "purchaseCourse(bytes16,bytes32)": {
        "notice": "Example, - courseId  = 10 (ASCII)  = 0x3130 (HEX)  => 16 bytes = 0x00000000000000000000000000003130 (32 characters) - address = 0xAb8483F64d9C6d1EcF9b849Ae677dD3315835cb2 => 20 bytes (30 characters) - abi.encodePacked(courseId, msg.sender) = 00000000000000000000000000003130Ab8483F64d9C6d1EcF9b849Ae677dD3315835cb2 - keccak256(00000000000000000000000000003130Ab8483F64d9C6d1EcF9b849Ae677dD3315835cb2) = ff97578d8dd58d484dac933924a0f06f3ff39cc2843610754dfebd8770f807e5 = courseHash = ff97578d8dd58d484dac933924a0f06f3ff39cc2843610754dfebd8770f807e5 (Output received from purchaseCourse function when run with above parameters on remix editor) - let proof = courseId-courseId (16 + 16 = 32 bytes, random value as of now) = 0x0000000000000000000000000000313000000000000000000000000000003130"
      }
    },
    "version": 1
  }
}