{
  "contractName": "CourseMarketplace",
  "abi": [
    {
      "inputs": [],
      "stateMutability": "nonpayable",
      "type": "constructor"
    },
    {
      "inputs": [],
      "name": "CourseHasOwner",
      "type": "error"
    },
    {
      "inputs": [],
      "name": "OnlyOwner",
      "type": "error"
    },
    {
      "inputs": [
        {
          "internalType": "bytes16",
          "name": "courseId",
          "type": "bytes16"
        },
        {
          "internalType": "bytes32",
          "name": "proof",
          "type": "bytes32"
        }
      ],
      "name": "purchaseCourse",
      "outputs": [],
      "stateMutability": "payable",
      "type": "function",
      "payable": true
    },
    {
      "inputs": [],
      "name": "getCourseCount",
      "outputs": [
        {
          "internalType": "uint256",
          "name": "",
          "type": "uint256"
        }
      ],
      "stateMutability": "view",
      "type": "function",
      "constant": true
    },
    {
      "inputs": [
        {
          "internalType": "uint256",
          "name": "index",
          "type": "uint256"
        }
      ],
      "name": "getCourseHashAtIndex",
      "outputs": [
        {
          "internalType": "bytes32",
          "name": "",
          "type": "bytes32"
        }
      ],
      "stateMutability": "view",
      "type": "function",
      "constant": true
    },
    {
      "inputs": [
        {
          "internalType": "bytes32",
          "name": "courseHash",
          "type": "bytes32"
        }
      ],
      "name": "getCourseByHash",
      "outputs": [
        {
          "components": [
            {
              "internalType": "uint256",
              "name": "id",
              "type": "uint256"
            },
            {
              "internalType": "uint256",
              "name": "price",
              "type": "uint256"
            },
            {
              "internalType": "bytes32",
              "name": "proof",
              "type": "bytes32"
            },
            {
              "internalType": "address",
              "name": "owner",
              "type": "address"
            },
            {
              "internalType": "enum CourseMarketplace.State",
              "name": "state",
              "type": "uint8"
            }
          ],
          "internalType": "struct CourseMarketplace.Course",
          "name": "",
          "type": "tuple"
        }
      ],
      "stateMutability": "view",
      "type": "function",
      "constant": true
    },
    {
      "inputs": [
        {
          "internalType": "address",
          "name": "newOwner",
          "type": "address"
        }
      ],
      "name": "transferOwnership",
      "outputs": [],
      "stateMutability": "nonpayable",
      "type": "function"
    },
    {
      "inputs": [],
      "name": "getContractOwner",
      "outputs": [
        {
          "internalType": "address",
          "name": "",
          "type": "address"
        }
      ],
      "stateMutability": "view",
      "type": "function",
      "constant": true
    }
  ],
  "bytecode": "0x608060405234801561001057600080fd5b506100203361002560201b60201c565b610069565b80600360006101000a81548173ffffffffffffffffffffffffffffffffffffffff021916908373ffffffffffffffffffffffffffffffffffffffff16021790555050565b610b4e806100786000396000f3fe6080604052600436106100555760003560e01c8063442890d51461005a57806362e4e6ac146100855780636d11290b146100c257806396cfda06146100ff578063d76821cb1461012a578063f2fde38b14610146575b600080fd5b34801561006657600080fd5b5061006f61016f565b60405161007c91906106b9565b60405180910390f35b34801561009157600080fd5b506100ac60048036038101906100a7919061070f565b610199565b6040516100b99190610852565b60405180910390f35b3480156100ce57600080fd5b506100e960048036038101906100e49190610899565b610274565b6040516100f691906108d5565b60405180910390f35b34801561010b57600080fd5b50610114610291565b60405161012191906108ff565b60405180910390f35b610144600480360381019061013f9190610972565b61029b565b005b34801561015257600080fd5b5061016d600480360381019061016891906109de565b61043b565b005b6000600360009054906101000a900473ffffffffffffffffffffffffffffffffffffffff16905090565b6101a161061e565b6000808381526020019081526020016000206040518060a00160405290816000820154815260200160018201548152602001600282015481526020016003820160009054906101000a900473ffffffffffffffffffffffffffffffffffffffff1673ffffffffffffffffffffffffffffffffffffffff1673ffffffffffffffffffffffffffffffffffffffff1681526020016003820160149054906101000a900460ff16600281111561025757610256610773565b5b600281111561026957610268610773565b5b815250509050919050565b600060016000838152602001908152602001600020549050919050565b6000600254905090565b600082336040516020016102b0929190610a74565b6040516020818303038152906040528051906020012090506102d1816104ce565b15610308576040517fb0fc2d9700000000000000000000000000000000000000000000000000000000815260040160405180910390fd5b60006002600081548092919061031d90610acf565b9190505590508160016000838152602001908152602001600020819055506040518060a001604052808281526020013481526020018481526020013373ffffffffffffffffffffffffffffffffffffffff1681526020016000600281111561038857610387610773565b5b81525060008084815260200190815260200160002060008201518160000155602082015181600101556040820151816002015560608201518160030160006101000a81548173ffffffffffffffffffffffffffffffffffffffff021916908373ffffffffffffffffffffffffffffffffffffffff16021790555060808201518160030160146101000a81548160ff0219169083600281111561042d5761042c610773565b5b021790555090505050505050565b600360009054906101000a900473ffffffffffffffffffffffffffffffffffffffff1673ffffffffffffffffffffffffffffffffffffffff163373ffffffffffffffffffffffffffffffffffffffff16146104c2576040517f5fc483c500000000000000000000000000000000000000000000000000000000815260040160405180910390fd5b6104cb816105da565b50565b6000806000808481526020019081526020016000206040518060a00160405290816000820154815260200160018201548152602001600282015481526020016003820160009054906101000a900473ffffffffffffffffffffffffffffffffffffffff1673ffffffffffffffffffffffffffffffffffffffff1673ffffffffffffffffffffffffffffffffffffffff1681526020016003820160149054906101000a900460ff16600281111561058757610586610773565b5b600281111561059957610598610773565b5b8152505090503373ffffffffffffffffffffffffffffffffffffffff16816060015173ffffffffffffffffffffffffffffffffffffffff1614915050919050565b80600360006101000a81548173ffffffffffffffffffffffffffffffffffffffff021916908373ffffffffffffffffffffffffffffffffffffffff16021790555050565b6040518060a00160405280600081526020016000815260200160008019168152602001600073ffffffffffffffffffffffffffffffffffffffff1681526020016000600281111561067257610671610773565b5b81525090565b600073ffffffffffffffffffffffffffffffffffffffff82169050919050565b60006106a382610678565b9050919050565b6106b381610698565b82525050565b60006020820190506106ce60008301846106aa565b92915050565b600080fd5b6000819050919050565b6106ec816106d9565b81146106f757600080fd5b50565b600081359050610709816106e3565b92915050565b600060208284031215610725576107246106d4565b5b6000610733848285016106fa565b91505092915050565b6000819050919050565b61074f8161073c565b82525050565b61075e816106d9565b82525050565b61076d81610698565b82525050565b7f4e487b7100000000000000000000000000000000000000000000000000000000600052602160045260246000fd5b600381106107b3576107b2610773565b5b50565b60008190506107c4826107a2565b919050565b60006107d4826107b6565b9050919050565b6107e4816107c9565b82525050565b60a0820160008201516108006000850182610746565b5060208201516108136020850182610746565b5060408201516108266040850182610755565b5060608201516108396060850182610764565b50608082015161084c60808501826107db565b50505050565b600060a08201905061086760008301846107ea565b92915050565b6108768161073c565b811461088157600080fd5b50565b6000813590506108938161086d565b92915050565b6000602082840312156108af576108ae6106d4565b5b60006108bd84828501610884565b91505092915050565b6108cf816106d9565b82525050565b60006020820190506108ea60008301846108c6565b92915050565b6108f98161073c565b82525050565b600060208201905061091460008301846108f0565b92915050565b60007fffffffffffffffffffffffffffffffff0000000000000000000000000000000082169050919050565b61094f8161091a565b811461095a57600080fd5b50565b60008135905061096c81610946565b92915050565b60008060408385031215610989576109886106d4565b5b60006109978582860161095d565b92505060206109a8858286016106fa565b9150509250929050565b6109bb81610698565b81146109c657600080fd5b50565b6000813590506109d8816109b2565b92915050565b6000602082840312156109f4576109f36106d4565b5b6000610a02848285016109c9565b91505092915050565b6000819050919050565b610a26610a218261091a565b610a0b565b82525050565b60008160601b9050919050565b6000610a4482610a2c565b9050919050565b6000610a5682610a39565b9050919050565b610a6e610a6982610698565b610a4b565b82525050565b6000610a808285610a15565b601082019150610a908284610a5d565b6014820191508190509392505050565b7f4e487b7100000000000000000000000000000000000000000000000000000000600052601160045260246000fd5b6000610ada8261073c565b91507fffffffffffffffffffffffffffffffffffffffffffffffffffffffffffffffff821415610b0d57610b0c610aa0565b5b60018201905091905056fea264697066735822122080d8ea70ff163240431b1730f91202916c6f3760e2d3a6da183061afcdf6a8d664736f6c634300080b0033",
  "immutableReferences": {},
  "source": "// SPDX-License-Identifier: MIT\npragma solidity >=0.4.22 <0.9.0;\n\ncontract CourseMarketplace {\n  enum State {\n    Purchased,\n    Activated,\n    Deactivated\n  }\n\n  struct Course {\n    uint256 id; // default to uint256 - 32 bytes (slot 1)\n    uint256 price; // 32 bytes (slot 2)\n    /**\n     * 8 * 32 = 256 bits hexadecimal characters,\n     * keccak256 encoded that is unique to the user, purchaser of the course\n     */\n    bytes32 proof; // 32 bytes (slot 3)\n    // user who has purchased the course\n    address owner; // 20 bytes (slot 4)\n    State state; // 1 byte (slot 4)\n  }\n\n  // Course Hash maps to Course\n  mapping(bytes32 => Course) private ownedCourses;\n\n  // Course Id maps to Course Hash\n  mapping(uint256 => bytes32) private ownedCoursesHash;\n\n  // total number of courses owned\n  uint256 private totalOwnedCourses; // defaults to a value of zero\n\n  address payable private owner;\n\n  constructor() {\n    setContractOwner(msg.sender);\n  }\n\n  /**\n      Comments made after `///` just above the error declaration \n      is considered as the error message for the given error\n   */\n  /// You already own the selected course!\n  error CourseHasOwner();\n\n  /// Only owner has the access!\n  error OnlyOwner();\n\n  modifier onlyOwner() {\n    if (msg.sender != owner) {\n      revert OnlyOwner();\n    }\n    _;\n  }\n\n  function setContractOwner(address newOwner) private {\n    owner = payable(newOwner);\n  }\n\n  function hasCourseOwnership(bytes32 courseHash) private view returns (bool) {\n    Course memory course = ownedCourses[courseHash];\n    return course.owner == msg.sender;\n  }\n\n  /**\n    Example,\n      - courseId  = 10 (ASCII) \n                  = 0x3130 (HEX) \n      => 16 bytes = 0x00000000000000000000000000003130 (32 characters)\n\n      - address = 0xAb8483F64d9C6d1EcF9b849Ae677dD3315835cb2 => 20 bytes (30 characters)\n\n      - abi.encodePacked(courseId, msg.sender)\n                  = 00000000000000000000000000003130Ab8483F64d9C6d1EcF9b849Ae677dD3315835cb2\n      \n      - keccak256(00000000000000000000000000003130Ab8483F64d9C6d1EcF9b849Ae677dD3315835cb2)\n                  = ff97578d8dd58d484dac933924a0f06f3ff39cc2843610754dfebd8770f807e5\n                  = courseHash\n                  = ff97578d8dd58d484dac933924a0f06f3ff39cc2843610754dfebd8770f807e5 (Output received from purchaseCourse function when run with above parameters on remix editor)\n      \n      - let proof = courseId-courseId (16 + 16 = 32 bytes, random value as of now)\n                  = 0x0000000000000000000000000000313000000000000000000000000000003130\n   */\n  function purchaseCourse(bytes16 courseId, bytes32 proof) external payable {\n    /**\n        - abi.encodePacked(courseId, msg.sender) => simply concatenates courseId & sender address together\n        - keccak256 encodes the concatenated courseId & sender address to generate the final course hash\n     */\n    bytes32 courseHash = keccak256(abi.encodePacked(courseId, msg.sender));\n\n    if (hasCourseOwnership(courseHash)) {\n      revert CourseHasOwner();\n    }\n\n    uint256 id = totalOwnedCourses++;\n    ownedCoursesHash[id] = courseHash;\n    ownedCourses[courseHash] = Course({\n      id: id,\n      price: msg.value,\n      proof: proof,\n      owner: msg.sender,\n      state: State.Purchased\n    });\n  }\n\n  /**\n   *  Get the total number of courses\n   */\n  function getCourseCount() external view returns (uint256) {\n    return totalOwnedCourses;\n  }\n\n  /**\n   *  Get the hash of the course at a given index\n   */\n  function getCourseHashAtIndex(uint256 index) external view returns (bytes32) {\n    return ownedCoursesHash[index];\n  }\n\n  /**\n   *  Get course detail for a given course hash\n   */\n  function getCourseByHash(bytes32 courseHash)\n    external\n    view\n    returns (Course memory)\n  {\n    return ownedCourses[courseHash];\n  }\n\n  function transferOwnership(address newOwner) external onlyOwner {\n    setContractOwner(newOwner);\n  }\n\n  function getContractOwner() public view returns (address) {\n    return owner;\n  }\n}\n\n/**\n  Commands:\n    - const instance = await CourseMarketplace.deployed();\n    - await instance.purchaseCourse(\"0x00000000000000000000000000003130\",\"0x0000000000000000000000000000313000000000000000000000000000003130\", { from: accounts[1], value: 2000000000 });\n    - (await instance.getCourseCount()).toString();\n    - await instance.getCourseHashAtIndex(0);\n    - await instance.getCourseByHash(\"0x54b70b6e9e56c766edcb9d5715690e437820188c9eb798fc4635e137262e30e5\");\n */\n",
  "sourcePath": "/Users/amitmahato/ReadyToWork/RND/Blockchain/marketplace-eth/contracts/CourseMarketplace.sol",
  "compiler": {
    "name": "solc",
    "version": "0.8.11+commit.d7f03943.Emscripten.clang"
  },
  "schemaVersion": "3.4.4",
  "updatedAt": "2022-09-12T19:46:45.455Z",
  "networkType": "ethereum",
  "devdoc": {
    "kind": "dev",
    "methods": {},
    "version": 1
  },
  "userdoc": {
    "errors": {
      "CourseHasOwner()": [
        {
          "notice": "You already own the selected course!"
        }
      ],
      "OnlyOwner()": [
        {
          "notice": "Only owner has the access!"
        }
      ]
    },
    "kind": "user",
    "methods": {
      "getCourseByHash(bytes32)": {
        "notice": "Get course detail for a given course hash"
      },
      "getCourseCount()": {
        "notice": "Get the total number of courses"
      },
      "getCourseHashAtIndex(uint256)": {
        "notice": "Get the hash of the course at a given index"
      },
      "purchaseCourse(bytes16,bytes32)": {
        "notice": "Example, - courseId  = 10 (ASCII)  = 0x3130 (HEX)  => 16 bytes = 0x00000000000000000000000000003130 (32 characters) - address = 0xAb8483F64d9C6d1EcF9b849Ae677dD3315835cb2 => 20 bytes (30 characters) - abi.encodePacked(courseId, msg.sender) = 00000000000000000000000000003130Ab8483F64d9C6d1EcF9b849Ae677dD3315835cb2 - keccak256(00000000000000000000000000003130Ab8483F64d9C6d1EcF9b849Ae677dD3315835cb2) = ff97578d8dd58d484dac933924a0f06f3ff39cc2843610754dfebd8770f807e5 = courseHash = ff97578d8dd58d484dac933924a0f06f3ff39cc2843610754dfebd8770f807e5 (Output received from purchaseCourse function when run with above parameters on remix editor) - let proof = courseId-courseId (16 + 16 = 32 bytes, random value as of now) = 0x0000000000000000000000000000313000000000000000000000000000003130"
      }
    },
    "version": 1
  }
}